:020000040800F2
:10080000A03600206D0B0008750B0008770B000860
:10081000790B00087B0B00087D0B0008000000002E
:100820000000000000000000000000007F0B000836
:10083000810B000800000000830B0008FD83000806
:10084000870B0008870B0008870B0008870B000840
:10085000870B0008870B0008870B0008870B000830
:10086000870B0008870B0008870B0008870B000820
:10087000870B0008870B0008870B0008870B000810
:10088000870B0008870B0008870B0008870B000800
:10089000870B0008870B0008870B0008870B0008F0
:1008A000870B0008870B0008870B0008870B0008E0
:1008B000870B0008870B0008870B0008870B0008D0
:1008C000870B0008870B0008870B0008870B0008C0
:1008D000870B00086F8500085F890008870B0008F8
:1008E000D97E0008870B0008870B000800F002F88B
:1008F00000F03AF80AA090E8000C82448344AAF180
:100900000107DA4501D100F02FF8AFF2090EBAE87D
:100910000F0013F0010F18BFFB1A43F00103184733
:10092000D8940000F8940000103A24BF78C878C129
:10093000FAD8520724BF30C830C144BF04680C60E5
:10094000704700000023002400250026103A28BF2D
:1009500078C1FBD8520728BF30C148BF0B60704731
:100960001FB51FBD10B510BD08F000FC1146FFF704
:10097000F7FF07F057FE08F01EFC03B4FFF7F2FF85
:1009800003BC08F023FC00000CB50020019000908F
:100990006C48006840F480306A49086000BF6948CC
:1009A000006800F4003000900198401C019000980D
:1009B00018B90198B0F5A06FF1D16248006800F451
:1009C000003010B10120009001E00020009000985C
:1009D000012843D15C48006840F010005A49086083
:1009E0000846006820F0030008600846006840F0F0
:1009F0000200086053484068524948600846406811
:100A000048600846406840F4806048600846406896
:100A100020F47C1048600846406840F4E8104860C4
:100A20000846006840F08070086000BF45480068D4
:100A300000F000700028F9D04248406820F0030020
:100A4000404948600846406840F00200486000BFE6
:100A50003C48406800F00C000828F9D10CBD10B5E6
:100A6000FFF792FF10BD10B53648006840F0010056
:100A700034490860084640683449084031494860B4
:100A800008460068324908402E4908600846006858
:100A900020F4802008600846406820F4FE0048608A
:100AA0004FF41F008860FFF7DAFF2A4800682A49E0
:100AB000086010BD10B5002100200022214B5B68AA
:100AC00003F00C0121B1042906D0082928D107E040
:100AD000224B234C236027E0204B214C236023E052
:100AE000184B5B6803F47010164B5B6803F480329C
:100AF000022303EB904022B91A4B4343184C236066
:100B00000DE0104B5B6803F4003323B1154B4343F6
:100B1000134C236003E0114B4343114C236003E06B
:100B20000E4B0F4C236000BF00BF064B5B68C3F346
:100B300003130D4CE15C0A4B1B68CB40084C23604F
:100B400010BD000000100240002002400000FFF82D
:100B5000FFFFF6FE0804000808ED00E000127A002E
:100B60000000002000093D000400002009488047E3
:100B700009480047FEE7FEE7FEE7FEE7FEE7FEE77F
:100B8000FEE7FEE7FEE7FEE704480549054A064B97
:100B900070470000670A0008ED080008A026002042
:100BA000A0360020A02A0020A02A002030B58842CC
:100BB00009D003460C4604E014F8015B03F8015B1E
:100BC000521E002AF8D130BDF0B503468B420DD03D
:100BD0001D460C4608E015F8016B14F8017BBE4277
:100BE00001D00120F0BD521E002AF4D10020F9E707
:100BF00010B5034602E003F8011B521E002AFAD189
:100C000010BD70B588420AD203460C4604E014F8C1
:100C1000015B03F8015B521E002AF8D10DE0884207
:100C20000BD983188C1806E0651E2C462E785D1EA5
:100C30002B462E70521E002AF6D170BDF0B5054627
:100C40000C4616462F46314614E011F801CB387891
:100C500084450DD1012200E0521CA24204D211F8B9
:100C600001CBB85C8445F7D0A24201D1881AF0BD0F
:100C70005B1E491C002BE8D10020F8E770B5044644
:100C800000260E70254610460AE010F8016B05F8A4
:100C9000016B0E78761C0E70067806B970BD5B1E6F
:100CA000002BF2D100260E7000BFF7E701460329A2
:100CB00001D1022070470020FCE70146B1F1883FD6
:100CC00001D102207047D6480068884201D1032034
:100CD000F8E70020F6E770B505460C46607810B1DD
:100CE00001282DD11CE02946A01DD4F80C219047E5
:100CF000C0B2207000B928E0207920B9D4F81200E1
:100D0000FFF7DBFF02E0A079FFF7D0FF6071A0786A
:100D1000012802D1C348007A00E00120E07000BF42
:100D200062792178A01DD4F80831984720B1E07885
:100D3000401EC0B2E07010B10120607005E000BF3D
:100D400007F054FB0020607000BF00BF70BD10B5FD
:100D5000B549B648FFF7BFFFB549B648FFF7BBFF37
:100D600010BD2DE9F04104460E4617462546314692
:100D7000284602F00DFE012805D12878032800D16D
:100D800000E000BF00BF0120BDE8F0810146881EE1
:100D90000C280FD2DFE800F0060E0E0A0E070E0830
:100DA0000E0B0E0C00BF00BF0320704700BF00BF3A
:100DB0000620FAE700BF00BF0020F6E7F8B50446BA
:100DC0000D26607800EB80009B4901EB8000C56830
:100DD00000270020009007F04BFC6178884262DD1C
:100DE00000BFA1782868884249D12078022808D01D
:100DF0002078042805D02078072802D020780928F8
:100E000027D1A86818B3607800EB80008B4901EB0C
:100E10004000807920B90926607804F032FE2DE088
:100E20000121601C00F08EFC601CA9688847064602
:100E3000022E23D12868CF2800D90126E07800901F
:100E40009DF80020211D601DFFF7DBFE16E00A263D
:100E500014E02078052805D020780B2802D02078CF
:100E60000D280AD1E86830B1621D6946601CEB6844
:100E70009847064602E00B2600E00C2612E0617857
:100E800001EB81016C4A02EB810108698047791C02
:100E9000C9B20F46884205DD05F114000546006819
:100EA000FF289ED900BF9DF80000401CE07026710D
:100EB0003046F8BD2DE9F84306460F469046B41D6E
:100EC00000F0E4F801280FD1204608F0DEF810B158
:100ED0000120BDE8F883207D2330C7B2F119881FB7
:100EE00006225749FFF762FE06F11B0004F11103C9
:100EF000621C39460090304602F093FA05460128FC
:100F000025D104F11100FFF759FF0546032D1ED02E
:100F100006F0EAF9607C022812D0607C05280FD028
:100F2000607C072802D0607C0B2801D1012D07D0FE
:100F3000607C092802D0607C0D2808D1012D06D0E4
:100F4000607CFFF723FF6074204602F0D3F8012095
:100F5000BFE710B54FF480623A493B4800F0EEFE1F
:100F60004FF480623949314800F0E8FE00203849EA
:100F70004870087188703748C1F8080100F086F899
:100F8000012804D134483249C1F80C0103E0334848
:100F90002F49C1F80C010020234948700871012035
:100FA00088702F48C1F8080100F070F8012804D1BA
:100FB00029481D49C1F80C0103E028481A49C1F825
:100FC0000C0180222749284800F0B8FE80222749DA
:100FD000184800F0B3FE0020254948700120087130
:100FE000002088702348C1F808012348C1F80C018B
:100FF00000200F4948700120087188701848C1F816
:1010000008011D48C1F80C011C4B032200210220DD
:1010100003F058FF10BD0449C1F8080170470000F3
:101020002000002078230020E0090020C0000020DC
:10103000200D0020000B0020709D00088824002057
:10104000F6970008D0000020B0000020D004002057
:10105000D0080020B50E000885130008B310000862
:10106000957F0008100B0020F00A0020900B002054
:10107000100C0020630D0008171200084F0D000827
:1010800010B504F008FCF849087010BDF648007867
:10109000704710B504460622F449204600F09CFE35
:1010A00010BD10B504460622F149204600F094FE1A
:1010B00010BD2DE9F04106460C4600BF04B96AE0B8
:1010C00000BF00BF204600F04FFE012800D162E0C3
:1010D00000BF0622E549204600F02EFF0546A56028
:1010E00000BF204600F040FE012800D153E000BFC1
:1010F0001B2500BF204600F060FEA84200D24AE057
:1011000000BFA0682844401E6168B0FBF1F201FBFB
:1011100012002168085C0830054400BFFA2D00D990
:1011200030E000BF00BF204600F047FEA84200D2DA
:1011300031E000BF00BFA0682844801F6168B0FB99
:10114000F1F201FB12070623C94A3946204600F096
:1011500021FF00B916E000BF00BF2A4631462046F5
:1011600000F06FFE00B916E000BF00BFA5F10C0053
:1011700081B2B01D00F0C2F900B10CE000BF2846FA
:10118000BDE8F081A068801D6168B0FBF1F201FB51
:101190001200A06000BF0020F2E72DE9F0410546F3
:1011A0000E46174600BF05B933E000BF00BF062258
:1011B000AE49284600F010FE00B92AE000BFB9B2DF
:1011C000304600F09BF9044600BF3A4631462846B7
:1011D00000F002FE00B91CE000BF00BF211228464B
:1011E00000F06DFE00B914E000BF00BFE1B2284678
:1011F00000F065FE00B90CE000BF00BF06229C496C
:10120000284600F0E9FD00B903E000BF0120BDE879
:10121000F0810020FBE72DE9F04106460C4600BFB7
:1012200004B967E000BF00BF204600F09DFD012823
:1012300000D15FE000BF06228C49204600F07CFE12
:101240000546A56000BF204600F08EFD012800D1B4
:1012500050E000BF0725A0682844401E6168B0FB2D
:10126000F1F201FB12002168085C0830054400BF60
:10127000FA2D00D935E000BF00BF204600F09DFDEB
:10128000A84200D236E000BF00BFA0682844801FFB
:101290006168B0FBF1F201FB12070623744A39467C
:1012A000204600F077FE00B91BE000BF00BF2A46D1
:1012B0003146204600F0C5FD00B91BE000BFB579FE
:1012C00000BFA81C81B2F01D00F018F900B111E0B8
:1012D00000BF2A46F11D3046FFF793FC2846BDE8C3
:1012E000F081A068801D6168B0FBF1F201FB120083
:1012F000A06000BF0020F2E72DE9F04106460F464E
:10130000154600BF06B93BE000BF00BF06225749A3
:10131000304600F061FD00B932E000BFA9B23846A6
:1013200000F0ECF8044600BFE9B2304600F0C7FD1B
:1013300000B925E000BF00BF2A463946304600F01C
:101340004BFD00B91CE000BF00BF2112304600F089
:10135000B6FD00B914E000BF00BFE1B2304600F0B6
:10136000AEFD00B90CE000BF00BF06224049304688
:1013700000F032FD00B903E000BF0120BDE8F081BC
:101380000020FBE72DE9F04106460C4600BF04B9FA
:101390005AE000BF00BF204600F0E6FC012800D163
:1013A00052E000BF06223149204600F0C5FD054647
:1013B000A56000BF204600F0D7FC012800D143E023
:1013C00000BFA068801D6168B0FBF1F201FB120054
:1013D00021680D5C00BF012D00D12CE000BF0C3551
:1013E00000BFFA2D00D926E000BF00BF204600F064
:1013F000E4FCA84200D227E000BF00BFA068284458
:10140000801F6168B0FBF1F201FB12070623184A46
:101410003946204600F0BEFD00B90CE000BF00BF19
:101420002A463146204600F00CFD00B90CE000BF12
:101430002846BDE8F081A068801D6168B0FBF1F22C
:1014400001FB1200A06000BF0020F2E7F0B5BFB0C2
:1014500006460F46144600BF06B949E000BF00BF6C
:10146000FA2C07D944E0000014000020F09700088F
:10147000F697000800BF224639466846FFF796FBFC
:10148000A1B2684600F03AF8054600BF06221949A5
:10149000304600F0A1FC00B92AE000BF2A12204625
:1014A000641C0DF80020EAB22046641C0DF80020F0
:1014B000E1B2684607F0C1FD9DF8004000BFFA2C7C
:1014C00000D915E000BF00BF22466946304600F053
:1014D00083FC00B90CE000BF00BF0622064930467D
:1014E00000F07AFC00B903E000BF01203FB0F0BD7E
:1014F0000020FBE7F0970008F697000870B5034658
:101500000C460025002600210DE0585C80EA05020B
:10151000154810F8120080EA0605134830F812004A
:101520000612481C81B2A142EFDB46EA052070BDDD
:10153000F0B504460D46002600271612D7B200214A
:101540000DE0605C80EA0603074810F8130080EAAB
:101550000706054830F813000712481C81B2A9425B
:10156000EFDB47EA0620F0BDFC970008014604E0E7
:101570000A2000E0401E0028FCD10A00A1F1010170
:10158000F6D1704710B5044605E007F009F840F2BF
:10159000E630FFF7EBFF2000A4F10104F5D110BD08
:1015A0002DE9F041044600250026002707F060F8E9
:1015B0002178884202DC0020BDE8F081207800EB31
:1015C0008000FE4901EB8000C56800BF6178286893
:1015D000884201D12E7C12E0217801EB8101F74A8B
:1015E00002EB810108698047791CC9B20F46884225
:1015F00005DD05F1140005460068FF28E6D900BFA7
:101600003046D9E7EE48006890F8000408B9012098
:1016100070470020FCE710B50446FFF7F3FF0128F0
:1016200001D1002010BDE648006890F80004A042F7
:101630002EDDE348006890F80004401EA0420FD061
:10164000DF4A126892F80024521EDD4B1B6803EB40
:101650004211DB4A126802EB44102022FFF7A6FA7F
:10166000D749096891F80014491ED54A126802EB5F
:10167000411020220021FFF7BBFAD148006890F802
:101680000004401ECE49096881F800040120C9E722
:101690000020C7E72DE9F04105460F460024A0468B
:1016A000002617B1012F48D120E0002417E0C448DC
:1016B000006800EB44100078297888420DD1C048BA
:1016C000006800EB441040786978884205D12046D4
:1016D000FFF7A1FF8046601EC4B2601CC4B2B848C8
:1016E000006890F80004A042E1DC27E02846FFF7FC
:1016F00057FF064606B3002418E0B148006800EB27
:1017000044100078297888420ED1FF2E06D0AC48CC
:10171000006800EB4410C07FB04205D12046FFF7BF
:101720007AFF8046601EC4B2601CC4B2A448006840
:1017300090F80004A042E0DC00E000BF00BF40469B
:10174000BDE8F08170B504460D4606F091FF2178A2
:10175000884201DC002070BDFFF754FF012801D151
:101760000020F8E7207820B129462046FFF792FFB5
:10177000F1E70020EFE79248006890F80004202885
:1017800001DB012070470020FCE770B504460D46E0
:10179000A07FD0B1A07FFF2802D0A07F401EA077FD
:1017A00004F11A0003F0CAFC642148433221B0FB63
:1017B000F1F0206104F11C0003F0C0FC64214843F7
:1017C0003221B0FBF1F0606105E02878FFF723FFDC
:1017D0002878401E287070BD2DE9F04104460D2682
:1017E0000027607800EB8000744901EB8000C56839
:1017F00006F03EFF617888422BDD00BFA1782868A3
:10180000884212D12078022808D02078042805D0F8
:101810002078072802D02078092805D1A86818B1B7
:10182000601CA9688847064612E0617801EB8101D7
:10183000624A02EB810108698047791CC9B20F46F0
:10184000884205DD05F1140005460068FF28D5D95A
:1018500000BF3046BDE8F08100B587B0002006909B
:1018600006F09EFEFFF7CEFE012801D107B000BDB5
:1018700000200690F8E0524800689DF8181000EB30
:1018800041100069B8B14E4800689DF8181000EB8F
:1018900041100069401E4A4909689DF8182001EB73
:1018A000421108610020464909689DF8182001EBA3
:1018B00042110876D3E00020414909689DF81820BC
:1018C00001EB421108613E4800689DF8181000EBDA
:1018D0004110007E30BB04208DF8040038480068B9
:1018E0009DF8183000EB43108078C21C3448006823
:1018F00000EB43110DF10500FFF758F901A8FFF7C0
:101900006BFF01202E4909689DF8182001EB421158
:10191000087600202A4909689DF8182001EB421139
:1019200048769CE0264909689DF8182001EB421191
:10193000888B03F0A7FC00287ED0214800689DF822
:10194000181000EB41104069B8B11D4800689DF8BF
:10195000181000EB41104069401E194909689DF8B4
:10196000182001EB421148610020154909689DF8D3
:10197000182001EB4211487671E0002010490968F7
:101980009DF8182001EB421148610D4800689DF850
:10199000181000EB4110407E002860D104208DF823
:1019A0000400074800689DF8181000EB4110C0784B
:1019B00080F001000249096804E00000709D000801
:1019C000180000209DF8182001EB4211C8706948EA
:1019D00000689DF8183000EB43108078C21C654801
:1019E000006800EB43110DF10500FFF7DFF86148D7
:1019F00000689DF8181000EB4110C07880F00100DD
:101A00005C4909689DF8182001EB4211C87001A8D3
:101A1000FFF7E2FE0120574909689DF8182001EB05
:101A2000421148760020534909689DF8182001EBBF
:101A3000421108764F4900E008E009689DF8182037
:101A400001EB421006A9FFF7A0FE08E0494909682A
:101A50009DF8182001EB421006A9FFF796FE9DF8AD
:101A60001800401CC0B206904248006890F800047C
:101A70009DF8181088423FF7FEAE00BFF6E670B53D
:101A8000044600253C48007840B901203A490870D6
:101A90003A4B32220021022003F014FAFFF76BFECA
:101AA000002855D1A078C01CC5B201212046FFF7FF
:101AB00049FE334991F800142E4A126802EB411096
:101AC0002A462146FFF772F861192D4A92F8002440
:101AD000284B1B6803EB421202F11A000522FFF7A4
:101AE00065F8601903F02AFB642148433221B0FBFA
:101AF000F1F0234991F800141E4A126802EB4111DB
:101B00000861A91C601803F019FB642148433221C5
:101B1000B0FBF1F01A4991F80014164A126802EB72
:101B2000411148612046FFF73BFD154991F800142B
:101B3000104A126802EB4111C8770E48006890F80D
:101B40000004401C0B49096881F80004012070BDA5
:101B50000020FCE77CB504460D468DF800408DF86A
:101B6000015000208DF8020001216846FFF7EAFDD0
:101B70007CBD0000180000201C000020591800083F
:101B8000300E00202DE9F04104460D46174628E0AE
:101B9000B4F5004F03D247F69C70854202D900206D
:101BA000BDE8F08104F03F00C0F14000A84204D23B
:101BB00004F03F00C0F1400000E028460646F3B2C2
:101BC000A1B23A46A02005F0E6FA00B90BE0344491
:101BD000AD1B37444FF0FF31A02005F0C8FA00B923
:101BE00001E0002DD4D100BF0DB90120D8E70022BB
:101BF0001146104600F07AF80020D1E72DE9F041B7
:101C000004460D46174628E0B4F5004F03D247F6C8
:101C10009C70854202D90020BDE8F08104F03F00AD
:101C2000C0F14000A84204D204F03F00C0F14000DF
:101C300000E028460646F3B2A1B23A46A02005F0DD
:101C4000DDFA00B90BE03444AD1B37446FF070414E
:101C5000A02005F08CFA00B901E0002DD4D100BF1E
:101C60000DB90120D8E700221146104600F03EF8D9
:101C70000020D1E72DE9F04104460D46174627E044
:101C8000B4F5004F03D247F69C70854202D900207C
:101C9000BDE8F08104F03F00C0F14000A84204D24A
:101CA00004F03F00C0F1400000E028460646F3B2D1
:101CB000A1B23A46A02005F0D1FA00B90AE03444B6
:101CC000AD1B6FF07041A02005F051FA00B901E0A2
:101CD000002DD5D100BF0DB90120D9E70022114652
:101CE000104600F003F80020D2E7000070B5064669
:101CF0000C46154626B1012E09D0022E12D109E05C
:101D0000022003F050FE0C4803F04EF90BE006F001
:101D10006FFC08E02DB12B4605220021084603F098
:101D2000D1F800E000BF00BF24B1012C02D0204652
:101D300004F072F870BD0000DD730008034600BFB8
:101D40000BB90020704700BF19605A600020D860AE
:101D500098600120F6E700BF00B9704700BF00217E
:101D60008160C16000BFF8E70146D1E902029042FC
:101D700001D1012070470020FCE70146C868401CE3
:101D80004A68B0FBF2F302FB13008A68904201D16B
:101D9000012070470020FCE70146D1E90202904291
:101DA00004D9D1E90202801A401E7047D1E901022C
:101DB0001044CA68801A401EF7E70146D1E90220A4
:101DC000904205D24A68C86810448A68801A7047F1
:101DD000D1E90220801AFAE72DE9F04104460F46C6
:101DE000154600BF14B90020BDE8F08100BF00BF58
:101DF0002046FFF7D1FFA84201D20020F4E700BF40
:101E0000E1686068401AA84203D2E1686068401A3D
:101E100000E028460646E2682168881832463946BE
:101E2000FEF7C4FEAA1BB9192068FEF7BFFEE068E2
:101E300028446168B0FBF1F201FB1200E060012070
:101E4000D2E72DE9F04104460E46154600BF14B90D
:101E50000020BDE8F08100BF00BF2046FFF784FFEF
:101E6000012801D10020F4E700BF00BF2046FFF7A2
:101E7000A4FFA84201D20020EBE700BFD4E9010192
:101E8000401AA84203D2D4E90101401A00E02846D2
:101E90000746A268206881183A463046FEF786FE5B
:101EA000EA1BF0192168FEF781FEA06828446168EA
:101EB000B0FBF1F201FB1200A0600120C9E770B590
:101EC00004460D4600BF0CB9002070BD00BF00BF26
:101ED0002046FFF752FF012801D10020F5E700BF9F
:101EE000E16820684554E068401C6168B0FBF1F28D
:101EF00001FB1200E0600120E7E710B503460C4645
:101F000000BF0BB9002010BD00BF00BF1846FFF78F
:101F10002BFF012801D10020F5E700BF9968186860
:101F2000405C20709868401C5968B0FBF1F201FBDE
:101F3000120098600120E6E7F0B503460C4615460E
:101F400000BF0BB104B10DB90020F0BD00BF99680E
:101F5000002212E01868405CA65CB04205D1501C1B
:101F60000246A84202D1521E0AE00022481C5E68C6
:101F7000B0FBF6F706FB17000146D8688842E9D1A6
:101F800000BF58680844801A5E68B0FBF6F706FB8D
:101F90001700DAE7F0B504460D4600BF206800B12F
:101FA0000AB90020F0BD00BF00210EE06818666885
:101FB000B0FBF6F706FB17002668365C12F8017BCB
:101FC000BE4201D00020EDE7491C9942EED301202A
:101FD000E8E700001FB5044606F0E2FA924904F172
:101FE00009020868611D03F007FB002850D0B4F80F
:101FF000030000900D20005B0390206901908A4847
:10200000001D0068B0F1082F1FD1552087490870C6
:1020100087480088402808D0802809D0B0F5807F04
:1020200009D0B0F5007F0CD108E0824802900BE0A7
:102030008148029008E08148029005E080480290C3
:1020400002E07C48029000BF05E0AA2077490870B2
:102050004FF008200290E07B694603F0D8FAB0B157
:10206000F120784908700920A0706F48001F00888F
:10207000A4F803006C480168C4F805106B480178A7
:1020800061726B4801886181022004B010BD00BFFD
:102090000E20FAE710B5044606F082FA6948007887
:1020A000F1280DD1E07861490978884206D1A278FB
:1020B000D21ED1B2A088A21D03F0F0FA012010BDFB
:1020C00060480078F22801D10120F8E700205D493E
:1020D00008700320F3E770B506460C46154606F077
:1020E0005FFA58480078F1280BD12946204603F0C2
:1020F00007FB20B1F22053490870012070BD002079
:10210000FCE750480078F22801D10120F6E70020D2
:102110004C4908700320F1E710B50446494800789F
:10212000F2281FD1E079217A4840E071207AE179E4
:1021300048402072E079217A4840E0710722115B23
:10214000D4F8030003F002FB012811D13648001F28
:1021500003F058FB60B1F3203A49087006F048FAE2
:10216000012010BD37480078F32801D10120F8E79D
:102170000020344908701220F3E710B50446A07817
:10218000012801D00F2010BDE078492802DBE0785B
:102190005D2801DD0E20F6E703F019FBE1788842A7
:1021A0000CD0E07803F0E1FA08B91220EBE7264BF7
:1021B0004FF448720021084602F084FE0120E2E755
:1021C00070B506460C46154603F001FB2870012049
:1021D000207070BD10B50446A078012801D00F20F2
:1021E00010BDE078012801DD0E20F9E703F053FB74
:1021F000E17888420CD0E07803F017FB08B9122090
:10220000EEE7124B4FF4FA720021084602F05AFE34
:102210000120E5E770B506460C46154603F03BFB8A
:1022200028700120207070BD040400081E000020EA
:10223000E0F7FF1F0084000800C4000800980108B0
:10224000002803081D000020EF780008F185000831
:1022500010B5802223492448FFF770FD10BD1CB53E
:10226000072269462048FFF7ECFD58B1DDF803303E
:102270009DF802209DF801109DF8000000F0A6FBDB
:1022800001201CBDFFF7E4FF0020FAE72DE9FC4127
:1022900005460C4616461F4605EB8500134901EB23
:1022A0004000807918B9C72C16DDDD2C14DA8DF8C2
:1022B00000508DF801408DF80260CDF803700722C0
:1022C00069460948FFF788FDAFF26D03C822002177
:1022D000032002F0F7FD02E0284603F0D2FBBDE840
:1022E000FC810000441200203412002088240020C9
:1022F00038B5A520009000BF4FF4105004466A4640
:102300000121FFF77BFCC14890F8720670B140F2E2
:1023100073620021BD48FEF76BFC00BF42F2014032
:102320000446BA4A40F27361FFF768FC38BD10B545
:1023300000BF42F201400446B44A40F27361FFF725
:1023400021FC00B910BD00F07AF9B04890F872068F
:1023500008B900F05FF9AD4890F87206322803DD45
:10236000FFF7C6FF00F056F900BFEBE72DE9F0419B
:1023700005460E4600241FE004EB4410A349085C08
:10238000C0B104EB44100844C07C1230C7B204EB67
:1023900044100A461044811C3A463046FEF714FCAD
:1023A00040B904EB44109949084440782870012052
:1023B000BDE8F081601CC4B2944890F87206A04257
:1023C000DADC0020F4E710B5034601221FE000210B
:1023D0000DE001EB41108D4C205C30B101EB411060
:1023E00020444078904200D106E0481CC1B28748A2
:1023F00090F872068842ECDC00BF844890F87206C0
:10240000884202D11A70012010BD501CC2B2FE2AAF
:10241000DDDB0020F8E7024600210EE001EB411071
:102420007A4B185C38B101EB411018444078904267
:1024300001D108467047481CC1B2744890F8720632
:102440008842EBDCFF20F5E7704890F872063228EE
:1024500001DB012070470020FCE72DE9F041044634
:102460000D46164604EB441068490844C07C1230FF
:10247000C7B204EB44100A461044811C3A46304669
:10248000FEF794FB2F700120BDE8F0812DE9F047A5
:1024900004460E4617461D46A5F10209322C3DDCC6
:1024A00099F81300123000F0FF0804EB4411574A6A
:1024B0001144881C42462946FEF778FB012004EBB4
:1024C0004411524A505404EB4410114608444670DB
:1024D00000BF42F20140212101FB040A04EB441039
:1024E0001146421821215046FFF788FB9FB147480B
:1024F00090F87206401C454981F8720600BF42F20E
:1025000001414348414A801A01EB000A404A012137
:102510005046FFF773FB0120BDE8F0870020FBE782
:1025200070B50446394890F87206401EA0423AD071
:10253000364A92F87226521E02EB4212334BD118E1
:1025400004EB4412D0182122FEF730FB00BF42F208
:102550000140212101FB040504EB44102B494218E2
:1025600021212846FFF74AFB284991F87216491E97
:1025700001EB4111254A881821220021FEF738FB82
:1025800000BF42F20141214890F87206401E21220C
:1025900002FB001504EB44101C4942182121284677
:1025A000FFF72CFB15E004EB4411184A8818212290
:1025B0000021FEF71DFB00BF42F20140212101FB7B
:1025C000040504EB44101149421821212846FFF765
:1025D00015FB0E4890F87206002814DD0B4890F8A1
:1025E0007206401E094981F8720600BF42F201419D
:1025F0000748064A801A0D18054A01212846FFF7A8
:10260000FDFA012070BD0020FCE70000C41200208C
:102610003619002010B5A54890F85E0170B140F25F
:102620005F120021A148FEF7E3FA00BF42F6013035
:1026300004469E4A40F25F11FFF7E0FA10BD10B564
:1026400000BF42F601300446984A40F25F11FFF79E
:1026500099FA00B910BD954890F85E01322801DD65
:10266000FFF7D8FF00BFF5E7024600210EE0C1EBFF
:10267000C1008E4B185C38B1C1EBC10018444078E2
:10268000904201D108467047481CC1B2874890F873
:102690005E018842EBDCFF20F5E770B50446834815
:1026A00090F85E01401EA0423AD0804A92F85E2126
:1026B000521EC2EBC2027D4BD118C4EBC402D0182B
:1026C0000722FEF773FA00BF42F60130072101FB33
:1026D0000405C4EBC4007549421807212846FFF7DA
:1026E0008DFA724991F85E11491EC1EBC1016F4A22
:1026F000881807220021FEF77BFA00BF42F601315D
:102700006A4890F85E01401E072202FB0015C4EBE8
:10271000C4006649421807212846FFF76FFA15E002
:10272000C4EBC401614A881807220021FEF760FA51
:1027300000BF42F60130072101FB0405C4EBC400D1
:102740005A49421807212846FFF758FA574890F887
:102750005E01002814DD554890F85E01401E534983
:1027600081F85E0100BF42F6013151484F4A801A9C
:102770000D184F4A01212846FFF740FA012070BD8D
:102780000020FCE72DE9F04104460D4616461F46A1
:10279000322C38DCC4EBC401444A1144881C0522A5
:1027A0003946FEF703FA0120C4EBC4013F4A5054F6
:1027B000C4EBC40011460844457000BF42F6013026
:1027C000072101FB0408C4EBC4001146421807218D
:1027D0004046FFF713FA9EB1344890F85E01401C62
:1027E000324981F85E0100BF42F6013130482F4A7C
:1027F000801A01EB00082E4A01214046FFF7FEF93E
:102800000120BDE8F0810020FBE770B504460D46CD
:102810001646C4EBC400254A1044811C05223046EC
:10282000FEF7C4F905202870012070BDFEB50646EC
:102830000C460020009001902546E87CC21C05F162
:102840001101C81CFEF7DDF96A4602A93046FFF700
:10285000DCFFE97CC91C05F11402881805226946D1
:10286000FEF7A4F9002068749120A874E87CC01CCD
:10287000E8740120FEBD2DE9F04104460D461646E0
:102880001F46FF2C03D1094991F85E1100E0214653
:1028900008463B4632462946FFF774FFBDE8F08103
:1028A00010B504462046FFF7F8FE10BD371900208A
:1028B000951A002010B5FFF73AFD10BD10B5FFF7CF
:1028C00017FD10BD10B50446092C3AD2DFE804F01C
:1028D00039050B11171D23293100994201DA012016
:1028E00010BD0020FCE7994201DC0120F8E7002040
:1028F000F6E7994201DD0120F2E70020F0E7994276
:1029000001DB0120ECE70020EAE7994201D1012038
:10291000E6E70020E4E7994201D00120E0E700204B
:10292000DEE7994203DC9A4201DB0120D8E7002070
:10293000D6E7994201DC9A4201DA0120D0E7002073
:10294000CEE70020CCE70146092916D2DFE801F0E6
:1029500015090F0D0B050711130006207047052000
:10296000FCE70420FAE70120F8E70220F6E703205D
:10297000F4E70820F2E70720F0E70020EEE703463F
:10298000092B1ED2DFE803F01D05060A0B1D1D0FE3
:10299000160000BF0868401C086014E000BF08680B
:1029A000401E08600FE00868401C08601068401E68
:1029B000106008E00868401C08601068401E106045
:1029C00001E00020704700BF0120FBE72DE9F04F38
:1029D0008DB006460F4690469A460024C6E004EBAA
:1029E00044106749085C01287ED1B8F1010F7CD101
:1029F0004FF0000904EB44100844007A010604EB90
:102A000044105F4A1044C07901EB004104EB4410CC
:102A10001044807901EB002004EB44111144497902
:102A200000EB010904EB4410114608448078B042E1
:102A30006AD104EB44100844C078B842F8D104EBE2
:102A4000441111440879534600224946FFF73AFFE2
:102A5000002859D004EB441049490844007B010682
:102A600004EB4410464A1044C07A01EB004104EBE9
:102A700044101044807A01EB002004EB441111440F
:102A8000497A00EB0109B9F1000F0FD104EB4413AF
:102A9000944663445A1D04EB44136344D97804EB11
:102AA00044136344987803F038F85DE004EB441174
:102AB000334A11444878FFF7D7FD8346FF2824D0D6
:102AC00004EB44102E4A8118212203A8FEF76EF869
:102AD00003A95846FFF7AAFE03AD05F11400E97CEF
:102AE000491DC9B2AA7C01E03DE03BE0CDE90021EF
:102AF000029095F80EC0E97B0CEB01218AB26B7C49
:102B0000687B494600F07EFB2BE004EB44101C4937
:102B10000844143004EB4411194A1144C97C04EBF5
:102B20004412174B1A44927CCDE90021029004EB29
:102B300044119C46614491F80EC004EB44119E463A
:102B40007144C97B0CEB01218AB204EB44119C4611
:102B500061444B7C04EB44116144487B494600F0DE
:102B600051FB00E000BF00BF601CC4B2044890F8F5
:102B70007206A0423FF733AF01200DB0BDE8F08FE1
:102B8000C412002010B50446012C02D1FFF75CFCF2
:102B900010BDFF20FCE770B504460D46012C03D1A3
:102BA0002846FFF738FC70BDFF20FCE730B5034630
:102BB0000C46012B18D100210BE001EB4110FB4D1D
:102BC000285C20B101EB4110284440785054481C47
:102BD000C1B2F64890F872068842EEDCF34890F8ED
:102BE00072062070012030BDFF20FCE72DE9F04186
:102BF00004460D4616461F46012C06D13A4631467C
:102C00002846FFF72AFCBDE8F081FF20FBE72DE90D
:102C1000F04104460D4616461F46DDF81880012C8B
:102C200012D1FF2D03D1E14991F8721600E0294637
:102C3000084643463A463146FFF728FC10B10120CA
:102C4000BDE8F0810020FBE7FF20F9E770B50446FE
:102C5000012C10D140F273620021D448FDF7C8FF67
:102C600000BF42F201400546D04A40F27361FEF7D0
:102C7000C5FF012070BDFF20FCE770B505460C467E
:102C8000012D07D1322C03DA2046FFF749FC70BD35
:102C90000020FCE7FF20FAE770B504460D46164613
:102CA000012C04D131462846FFF760FB70BDFF20A0
:102CB000FCE770B504460D46012C03D12846FFF70A
:102CC00082FB70BDFF20FCE72DE9FC4106460C4667
:102CD0000027224601A93046FFF7DEFFF0B9304653
:102CE000FFF750FF012802D11320BDE8FC8101A9A4
:102CF0003046FFF7DEFF012802D10127FF2501E062
:102D00001420F2E73B4600949DF804202946304603
:102D1000FFF77DFF01280CD01020E6E72846FFF7DB
:102D2000A3FC8046FF2803D04046FFF7B9FDDCE74F
:102D300000BFA41E9DF8040020700120D5E72DE9F6
:102D4000F84F06460C4615464FF00008C14621468E
:102D50003046FFF720FF0746FF2801D14FF0010959
:102D60004B462246394630460095FFF750FF8046D5
:102D70002046FFF779FC8246FF2804D05046FFF733
:102D80008FFDBDE8F88F4046FBE72DE9FE43814605
:102D90000E4614461F4600200090019031464846DA
:102DA000FFF7F9FE8046FF2823D03B4622464146E6
:102DB0004846FFF71BFFBD1E3046FFF755FC804617
:102DC000FF2813D00DF1010202A94046FFF71DFDB7
:102DD0002078801D207001208DF80000EA7C05F12C
:102DE0001401501806226946FDF7E0FE0120BDE8F7
:102DF000FE830020FBE72DE9F04107460E4614460E
:102E00001D46FF2E07D12A4621463846FFF7CEFE43
:102E10000120BDE8F08131463846FFF7BCFE28703E
:102E2000FF2802D001202070F3E70020F1E770B501
:102E300005460C46FF2C05D1FFF7ECFB2846FFF7B3
:102E400005FF70BD21462846FFF7A5FE0646FF2870
:102E500003D031462846FFF710FF2046FFF704FC59
:102E60000646FF2803D03046FFF71AFDE9E70120A8
:102E7000E7E72DE9FF4180460C460027002001903E
:102E80000290A61EF17C06F11400405C012811D1CD
:102E9000F07C401C06F114028118052201A8FDF700
:102EA00085FE012101A802F015FA18B91D2004B011
:102EB000BDE8F081224603A94046FFF7EDFEE8B9E0
:102EC0004046FFF75FFE012801D11320EFE703A979
:102ED0004046FFF7EEFE012802D10127FF2501E061
:102EE0001420E4E73B4600949DF80C202946404618
:102EF000FFF78DFE012809D01020D8E79DF80C00BF
:102F0000FFF7B2FB0546FF2800D1012701AB3A4687
:102F10009DF80C102846FFF7AEFCA41E9DF80C008F
:102F200020700120C3E72DE9FE4F80460D4616466E
:102F30004FF000090027002001900290B41EE17CB0
:102F400004F11400405C012810D1E07C401C04F125
:102F500014028118052201A8FDF728FE012101A80D
:102F600002F0B8F910B91D20BDE8FE8F2946404691
:102F7000FFF711FE8246FF2800D101273B462A4673
:102F8000514640460096FFF742FE81462846FFF72D
:102F90006BFB8246FF2800D1012701AB3A46294648
:102FA0005046FFF768FC4846DEE70000C4120020E8
:102FB0002DE9F041054600240026354890F87206B8
:102FC00010B90120BDE8F08127E004EB441030493E
:102FD00008448078A8421ED101260A4692F872263B
:102FE000521E02EB42120B46D11804EB4412D018C9
:102FF0002122FDF7DBFD264890F87206401E244989
:1030000081F8720604EB44100A461044417800200F
:10301000FFF70DFF01E0601CC4B21D4890F8720676
:10302000A042D2DC46B100BF42F201400746184A36
:1030300040F27361FEF7E2FD0120C3E770B505467B
:103040000E46002400BF1CE004EB44101049084465
:10305000C078A84212D104EB44100844D0F805000F
:10306000B0420BD12046FFF75BFA04EB4410084A4C
:10307000104441780020FFF7DAFE02E0601CC4B281
:1030800000BF034890F87206A042DDDC012070BD4D
:10309000C412002010B56C49012002F0D8FE10BD0A
:1030A0002DE9F04104460D4600260027FDF7EEFF0E
:1030B000012801D1654F00E0654F287D00F1150220
:1030C00029462046B84700B9012646B161488442E6
:1030D00005D1002202210846FEF708FE08E03EB1B5
:1030E0005D48844204D1002203210220FEF7FEFD48
:1030F000BDE8F08110B5044601202070524809381F
:103100000068C4F80100504809384168E160D4F80B
:1031100006004D4909394968884202D06079012882
:1031200003DD21464C48FFF7BBFFD4F806004649B3
:1031300009394968884203D021464648FFF7B0FF65
:1031400010BDF0B5BFB005460E4617466C461022BE
:103150002946601CFDF72AFD3B480938407A401C8F
:10316000C1B239480938417221740422314604F150
:103170001100FDF71BFDF27839460DF11500FDF742
:1031800015FD2046FFF7B6FF3FB0F0BDF0B585B0A6
:1031900004460D4616461F4601208DF808004FF0E4
:1031A0008830CDF809000020ADF80D008DF8000042
:1031B0008DF801408DF802508DF803603A4669465B
:1031C00001A8FFF7BEFF05B0F0BDF0B591B0054610
:1031D0000E4614461F4601208DF804008DF8055058
:1031E0008DF806608DF807402246394602A8FDF7A3
:1031F000DDFC201DC2B201AB00210846FFF7C6FF6F
:1032000011B0F0BD2DE9F04786B004460D461646D4
:103210001F46DDE90F9ADDF838808DF80C40CDF8B7
:103220000D50ADF8116004208DF804008DF8068073
:103230008DF805708DF80790524601A902A8FFF796
:1032400080FF06B0BDE8F087812300204D14000800
:103250009B110008C0000020B00000202DE9F041C3
:1032600006460F46042506E0681E305CFF2800D0A5
:1032700003E0681EC5B2002DF6DC00BF0024601E0E
:1032800038601EE0305DFF2819D005F0F1F9804666
:1032900012E0A8F10100C0B2804600EB8000FD49B9
:1032A00001EB4000005D315D884205D0012101FA4B
:1032B00008F1386888433860B8F1000FE9D1601C24
:1032C000C4B2AC42DEDB2846BDE8F08102460021F4
:1032D0000CE0F0480A30405C535C984204D0505CEB
:1032E000FF2801D000207047481CC1B20429F0DB40
:1032F0000120F8E730B50546E748807F012808D16E
:103300002879022805DB681DFFF7E0FF08B10120DE
:1033100030BD002424E0E0480A3000EB840000685F
:1033200030B1DD480A3000EB84000068401C00B971
:1033300014E0D5F80B10D8480A3000EB8400006880
:10334000814208D0D5F80510D3480A3000EB84003C
:103350000068814201D10120DAE700BF601CC4B2DD
:10336000052CD8DB0020D3E730B50246002138E039
:10337000CA4800EB01100068D2F80B40A0422ED1E1
:1033800000230BE0C54800EB01100830C05CD47B83
:10339000A04201D1002030BD581CC3B2052BF1DB87
:1033A000BE4800EB0110407B401CC0B2BB4C04EB9C
:1033B00001146073052490FBF4F504FB1500B74C71
:1033C00004EB01146073D47BB44800EB01100830A7
:1033D000B24D05EB01156D7B44550120DBE7481C20
:1033E000C1B21429C4DBAE480078401CC0B2AC4C5A
:1033F0002070142490FBF4F504FB1500A84C2070F9
:10340000D07BA64CA64D2D7804EB05142072D2F883
:103410000B40A248A24D2D7800EB0510046001205E
:10342000B9E72DE9FF4FA3B0814616461C46309FF1
:10343000306899490968884208D0306899498842BB
:1034400004D095480068401C002872D13046FFF730
:103450008BFF18B9082027B0BDE8F08F3046FFF782
:1034600049FF88B1FDF712FE012808D1E07800F18C
:10347000150209F106018C48FDF7E8FF04E0494612
:103480008948249AFEF7A8FC307901280BD1D6F898
:10349000050081494968884201D00620DBE7002009
:1034A0008249086057E23079052807D1D6F805002F
:1034B00020B9D6F80B007D4908604CE24FF0000BB4
:1034C00000BF7B48806840F00100794988607948F6
:1034D000006808607748001D00680860754808307B
:1034E0000068086074480068086073480E3000681F
:1034F0000860084600688346D6F80B006B490860F0
:1035000022A9701DFFF7AAFE8246229800FA0BF04E
:103510002290DA44229808B907209CE730790228E3
:103520003BD1607830B9A078912803D194F803801A
:1035300011E016E2E2783946F81CFDF762FB03223F
:10354000611C3846FDF732FBE078C01C00F0FF0834
:1035500000206070A0700020E070012518E00120BC
:10356000A8402299084088B1727A0AF0FF012846E3
:1035700002F0BFFD50B1E178C81942463946FDF767
:1035800015FBE0783D54E0784044E070681CC5B21B
:1035900005F06EF8A842E2DCDCE1307903285FD167
:1035A000002001908DF8080091208DF8090000207E
:1035B0008DF80A006070A070E07001253AE00120EB
:1035C000A8402299084008B3E078C319727A0AF03B
:1035D000FF01284603F069F9012818D1E078385C2A
:1035E000A0B1E078385C0190E2783A44511C9DF833
:1035F0000A300DF10B029818019AFDF7D7FA9DF8E1
:103600000A1001980844C0B28DF80A0010E0E07872
:10361000385C68B1E07817F80080E2783A44511CD1
:10362000E278D0194246FDF7ECFAE0784044E070C9
:10363000681CC5B205F01CF8A842C0DC9DF80A0061
:1036400068B19DF80A10CA1CE178C81902A9FDF7F3
:10365000ADFAE1789DF80A00C01C0844E07079E1F9
:103660003079042868D1607898B9E2783946F81C36
:10367000FDF7C7FA0322611C3846FDF797FAE07898
:10368000C01C00F0FF0800206070A070E0700125F1
:103690002DE031E08824002078230020981A0020B3
:1036A0002400002042455354C00000202000002088
:1036B00000300240E8F7FF1F820300080120A84005
:1036C0002299084088B1B6F80900C849098889B22A
:1036D00088420AD1E178C81942463946FDF766FAB0
:1036E000E0783D54E0784044E070681CC5B204F0D6
:1036F000BFFFA842E2DC2DE104F0BAFF401E617872
:10370000884201DA0E20A6E66178012088402299DD
:10371000084078B1B6F80900B449098889B28842EE
:103720009DD0B248008880B21D2803D1B6F80900A8
:103730001E2894D00E208EE63079062834D1E27807
:103740003946F81CFDF75DFA0322611C3846FDF787
:103750002DFAE078C01C00F0FF0800206070A07017
:10376000E07001251BE00120A84022990840A0B18B
:10377000B6F8090005EB85019D4A02EB41018988F5
:1037800088420AD1E178C81942463946FDF70EFA57
:10379000E0783D54E0784044E070681CC5B204F025
:1037A00067FFA842DFDCD5E03079072834D1E27822
:1037B0003946F81CFDF725FA0322611C3846FDF74F
:1037C000F5F9E078C01C00F0FF0800206070A070E0
:1037D000E07001251BE00120A84022990840A0B11B
:1037E000B6F8090005EB8501814A02EB4101C97970
:1037F00088420AD1E178C81942463946FDF7D6F920
:10380000E0783D54E0784044E070681CC5B204F0B4
:103810002FFFA842DFDC9DE0307914285CD160786E
:10382000A8BBE2783946F81CFDF7EBF90322611CCE
:103830003846FDF7BBF9E078C01C00F0FF08002017
:103840006070A070E07001251CE005EB8500684900
:1038500051F81000D6F80510884211D1B6F80900C9
:103860006249098889B288420AD1E178C81942467A
:103870003946FDF79BF9E0783D54E0784044E0702C
:10388000681CC5B204F0F4FEA842DEDC62E0FFE78B
:1038900004F0EEFE401E6178884201DA0E20DAE57F
:1038A000607800EB8000524951F81000D6F80510FE
:1038B00088420FD1B6F809004C49098889B288427C
:1038C00048D04A48008880B21D2803D1B6F80900C4
:1038D0001E283FD00E20BEE53079162838D1E27878
:1038E0003946F81CFDF78DF90322611C3846FDF7B7
:1038F0005DF9E078C01C00F0FF0800206070A07047
:10390000E07001251FE005EB8500394951F81000F2
:10391000D6F80510884214D1B6F8090005EB8501E8
:10392000334A02EB4101898888420AD1E178C819FB
:1039300042463946FDF73AF9E0783D54E078404494
:10394000E070681CC5B204F093FEA842DBDC01E025
:10395000052080E500BFD6F80B00C6F80500012061
:1039600079E5042077E50146032901D10A20704753
:1039700000BF00BF0020FAE770B504460D4620786E
:10398000FFF7F1FFA84201D0002070BD0120FCE745
:1039900070B58EB004460E4601ADD4F8010015494D
:1039A000096888421FD131462046FFF7E5FF01280C
:1039B00019D1D4F80500C5F80B00607AE87301202E
:1039C00028712846FFF7D0FC10B908200EB070BD52
:1039D0002846FFF78FFC20B1324621460648FDF706
:1039E0008BFC0120F2E71220F0E700000004000841
:1039F0008824002078230020000B002030B50446E6
:103A0000002B0EDD581EFA4D05F8204005EB800016
:103A10004170581E05EB80008270581E05EB800037
:103A2000C370012030BD70B50024F24A20214FF44C
:103A30003E60FEF7A7F800BF25E0E21704EB5272E4
:103A4000D210EC4B9A5CE31704EB5373DB10A4EB3E
:103A5000C3050123AB401A409AB1A10001F2D17015
:103A6000E54A0421FEF78EF8651CEBB2E24DAA7818
:103A700069782878FFF7C2FFE0480078401CDF49EA
:103A80000870601CC4B2FF2CD7DB70BD10B50346B4
:103A90000C46002115E0D64810F8210098420ED1BE
:103AA000D34800EB81004078A04208D1D04800EB19
:103AB00081008078904202D1481CC0B210BD481CE1
:103AC000C1B2FF29E7DB0020F8E770B504460CB966
:103AD000002070BD0021601EC54A02F8201002EBD4
:103AE00080004170601E02EB80008170601E02EB5E
:103AF0008000C170601EC21700EB5272D210BD4B25
:103B00009A5C611ECB1701EB5373DB10A1EBC3056D
:103B10000123AB409A43C31700EB5373DB10B54D41
:103B2000EA54651EE91705EB5171B24B03EBE10254
:103B3000661EF11706EB5171C91001F53E600121B7
:103B4000FEF75CF8611E40F2D17202EB81000022A8
:103B50000421FEF78FF8A9480078401EA749087095
:103B60000120B6E72DE9F8430446002705F036FBAF
:103B70000746A0783841A0706946201DFFF76EFB0C
:103B80000646F019C6B2A078032802DA0F20BDE875
:103B9000F88304F06DFD0146E078401C3844C0B263
:103BA000814205DB207A401C3844C0B2402801DD48
:103BB0000E20ECE7A07A01283AD1E07828B1E0782D
:103BC000FF2802D0207AFF2801D10E20DFE7E1781C
:103BD000012088400099084040B3A0780938E0727D
:103BE000E07A202820DA6078A02814D18248467034
:103BF000E07881498870207A8870227AE0783146AE
:103C000002F09DFB227AE07804F10B03314602F0CA
:103C10001FFCC0B2BBE7227AE07804F10B03314607
:103C200002F0CBFDC0B2B2E70F20B0E70720AEE74D
:103C3000A07A00286DD1E078FF283FD1C6B9207A5C
:103C4000FF2802D101F0D7FF63E001250BE001203E
:103C5000A8400099084020B1227A3146284602F057
:103C600059FB681CC5B204F003FDA842EFDC50E02C
:103C700001251EE00120A84000990840B8B1207A33
:103C8000FF280FD14FF0000808E0E07842463146A7
:103C900002F040FB08F1010000F0FF08B8F1400F0E
:103CA000F3DB04E0227A3146284602F033FB681C3D
:103CB000C5B204F0DDFCA842DCDC2AE0E17801209A
:103CC00088400099084010B366B9207AFF2803D1D4
:103CD000E07802F0BAFA1CE0227AE078314602F08D
:103CE00019FB16E0207AFF280BD1002506E0E078CA
:103CF0002A46314602F00EFB681CC5B2402DF6DBA9
:103D000007E0227AE078314602F004FB01E0072068
:103D10003DE701203BE7F8B504460E4615466946E7
:103D2000201DFFF79BFA0746A078032801DA0F2031
:103D3000F8BDE07838B104F09BFCE178884202DD00
:103D40002089402801DD0E20F2E7E178012088403B
:103D50000099084080B1227AE0782B46394602F07B
:103D6000A4FD2878401C3070287810B101202870FC
:103D700006E00020287003E0002030700720D7E71D
:103D80000120D5E72DE9F8430446002705F026FA7F
:103D90000746A0783844A0706946201DFFF75EFAF8
:103DA000064646EA0700C6B2A078032802DA0F20CA
:103DB000BDE8F88304F05CFCE178491C3944C9B2E1
:103DC000884205DB207A401C3844C0B2402801DD1F
:103DD0000E20EDE7A07A012820D1E07828B1E07824
:103DE000FF2802D0207AFF280AD10E20E0E7000049
:103DF000D81B0020D81F002026000020250000200E
:103E0000E178012088400099084028B1227AE078C2
:103E1000314602F0C0F872E00720C9E7A07A002816
:103E20006DD1E078FF283FD1C6B9207AFF2802D1B2
:103E300001F019FF63E001250BE00120A840009983
:103E4000084020B1227A3146284602F038F8681C32
:103E5000C5B204F00DFCA842EFDC50E001251EE0E5
:103E60000120A84000990840B8B1207AFF280FD15E
:103E70004FF0000808E042463146284602F01FF89D
:103E800008F1010000F0FF08B8F1400FF3DB04E097
:103E9000227A3146284602F012F8681CC5B204F0B6
:103EA000E7FBA842DCDC2AE0E178012088400099A9
:103EB000084010B366B9207AFF2803D1E07801F0FA
:103EC000B7FE1CE0227AE078314601F0F8FF16E0F8
:103ED000207AFF280BD1002506E0E0782A463146FB
:103EE00001F0EDFF681CC5B2402DF6DB07E0227A39
:103EF000E078314601F0E3FF01E0072058E70120B8
:103F000056E7F8B504460D4616466946201DFFF7EC
:103F1000A5F90746A078032801DA0F20F8BDE0785C
:103F200038B104F0A5FBE178884202DD207A402810
:103F300001DA0E20F2E7E17801208840009908407C
:103F400040B101202870227AE078394602F0D1F899
:103F5000307003E0002028700720DFE70120DDE754
:103F600010B5C4B02948447ABB208DF81000284809
:103F700000788DF8110026480078401C244908700C
:103F80002248007A0978884203DAFF208DF8100071
:103F9000022404A8B521CDE9001402901B48012396
:103FA000002201681846FFF72DF944B010BD10B586
:103FB00000201749087015484289007A811CAFF229
:103FC0005F03012000F07EFF10BD10B5002003F05C
:103FD00039FB10BD3EB5002503F03BFB0546002430
:103FE00010E00A48007A401CC0B2B621CDE90105B4
:103FF000009106480123002201681846FFF702F9E4
:10400000601CC4B2022CECDB3EBD0000F81F002097
:104010002B00002010B504466248007808B1122039
:1040200010BD01205F490870D4F803005E490860A4
:10403000072000594860E07A0872217B5A48417293
:104040000D20015B58484181584B4FF47A72002192
:10405000084600F037FF0120E2E753480068704748
:104060005148007A704703460D2008704E4800689A
:1040700010604D48406850604B48007A10724A48C2
:10408000407A507248484089508146480078107301
:104090000120704770B50446002542480078012889
:1040A00001D0122070BD02203E490870D4F80300F0
:1040B0003D490860072000594860E07A0872217B7A
:1040C000394841720D20015B37484181012003F0DE
:1040D000B9FA374B41F288320021084600F0F2FE6F
:1040E00003F0B7FA05463048007A421C0021284602
:1040F000FCF77EFD0120D5E703460D2008702A4815
:10410000006810602848406850602748007A1072A4
:104110002548407A507224484089508121480078CF
:1041200010730120704710B50446214B41F28832CC
:104130000021084600F0C6FEE078FF2812D1194899
:10414000007802280ED11A4800F02EFFFFF73DFF3D
:10415000184B4FF47A720021084600F0B3FE00209D
:1041600010490870012010BD70B506460C46154672
:104170000120207003F06FFA2870012070BD10B587
:1041800004460020074908700B4800F00DFF01208D
:1041900010BD03460120087002480078107001200D
:1041A000704700002A000020F81F0020AF3F0008E1
:1041B000CB3F0008D53F0008613F00082920704729
:1041C00010B5002001F0EFFB10BD10B5044601F062
:1041D000F5FD02F003FCFEF76DFB02F09EF9FEF721
:1041E00037F8002207210220FDF780FDAFF22F03F0
:1041F0004FF47A720021084600F064FEFCF746FF97
:10420000012802D1F74804F06BFF10BD70B50446D9
:104210000020087042F2D8700D7850530878801C46
:104220000870F14800680D7850510878001D08703A
:10423000ED48001D00680D7850510878001D087089
:104240004FF00060D0F800030D7850510878001D41
:104250000870E54BF43B05E01D780E78701C087083
:1042600095555B1C18785A2802DC18783028F3DA48
:10427000012070BD10B50346987860B1DA48001F80
:104280000068B3F80340A04205D0B3F803004FF62E
:10429000FF74A04212D100200870D348001F00888C
:1042A0000C7810530878801C0870CF4800680C7890
:1042B00010510878001D0870012010BD1220FCE785
:1042C00010B50446A078042801DCA07808B90F20B6
:1042D00010BDD4F80300C349091F0860042001F091
:1042E000B6FD08B91020F3E70120F1E70346BD4809
:1042F000001F00681060042008700120704703460A
:10430000B848001F40681060042008700120704702
:1043100010B50446E078052801DCE07808B90F20E4
:1043200010BDE078AF49091F08720831012001F083
:104330008EFD08B91020F3E70120F1E70346A948F4
:10434000001F007A107001200870704770B5054694
:10435000A878192806DCA878052190FBF1F201FB6A
:10436000120008B10F2070BDA878052190FBF1F074
:10437000C6B200240EE004EB8401E81C405C28B1C6
:1043800004EB8401E81C405C052801DD0E20EAE70F
:10439000601CC4B2B442EEDB002410E004EB8400E5
:1043A000401CE91C0A5804EB8401E81C405C401ED8
:1043B0008C49891D01EB80000260601CC4B2B442CC
:1043C000ECDB8849891D142001F041FD08B910205B
:1043D000C9E70120C7E7F0B503460C460025D878A9
:1043E000FF2827D100202070002120E07D48801D7B
:1043F00000EB81000068C0B17A48801D00EB8100AD
:104400000068401C88B1481C05EB8506905575482E
:10441000801D00EB8100066805EB8507501CC65126
:104420002078401D2070681CC5B2481CC1B2052907
:10443000DCDB13E0D87810B1D878052801DD0F2037
:10444000F0BDD8781070D878401E664EB61D06EBC9
:1044500080000068C2F80100052020700120EFE70D
:1044600010B50446E07808B1012000E000205D4965
:10447000091F88771E31012001F0E9FC08B91020DE
:1044800010BD0120FCE703465648001F807F01282D
:1044900000D100E00020107001200870704770B556
:1044A0000446A078052801DCA07808B90F2070BD6B
:1044B000E078C0B9012511E005EB85014B4A606841
:1044C00042F8110005EB850002EB4001042001F0E9
:1044D000DEFC08B91020EAE7681CC5B204F0C8F891
:1044E000A842E9DC18E004F0C3F8E178884201DC76
:1044F0000E20DCE7E17801EB81013C4A606842F87C
:104500001100E07800EB800002EB4001042001F094
:10451000BEFC08B91020CAE70120C8E72DE9F04128
:1045200004460D461646A078032801DCA07810B991
:104530000F20BDE8F081E078A0B9012700202870A5
:104540000BE007EB8700294951F8100029787050DB
:104550002878001D2870781CC7B204F089F8B8428A
:10456000EFDC0FE004F084F8E178884201DC0E20F3
:10457000DFE7E07800EB80001C4951F81000306064
:10458000042028700120D4E770B50446A0780328E1
:1045900001DCA07808B90F2070BDE078D0B9012502
:1045A00013E0A08805EB8501104A02EB41018880E9
:1045B00005EB850002EB4000011D022001F067FCC5
:1045C00008B91020E8E7681CC5B204F051F8A84209
:1045D000E7DC21E004F04CF8E178884208DC0E20AA
:1045E000DAE700007C23002004040008882400206F
:1045F000A088E17801EB8101F74A02EB4101888054
:10460000E07800EB800002EB4000011D022001F089
:104610003EFC08B91020BFE70120BDE72DE9F041BD
:1046200004460D461646A078032801DCA07810B990
:104630000F20BDE8F081E078A8B90127002028709C
:104640000CE007EB8700E44901EB40008088297803
:1046500070522878801C2870781CC7B204F008F8C3
:10466000B842EEDC10E004F003F8E178884201DCA7
:104670000E20DEE7E07800EB8000D74901EB400038
:1046800080883080022028700120D2E770B504466F
:10469000A078022801DCA07808B90F2070BDE0786E
:1046A000D0B9012513E0207905EB8501CA4A02EB58
:1046B0004101C87105EB850002EB4000C11D0120DE
:1046C00001F0E5FB08B91020E8E7681CC5B203F06B
:1046D000CFFFA842E7DC1AE003F0CAFFE178884286
:1046E00001DC0E20DAE72079E17801EB8101BA4A9A
:1046F00002EB4101C871E07800EB800002EB400062
:10470000C11D012001F0C3FB08B91020C6E701203C
:10471000C4E72DE9F04104460D461646A07802286C
:1047200001DCA07810B90F20BDE8F081E078A8B9CD
:104730000127002028700CE007EB8700A64901EB59
:104740004000C079297870542878401C2870781C63
:10475000C7B203F08DFFB842EEDC10E003F088FF33
:10476000E178884201DC0E20DEE7E07800EB800093
:10477000994901EB4000C079307001202870012078
:10478000D2E770B50446A078032801DCA07808B908
:104790000F2070BDE07808BB01251AE0207905EBF9
:1047A00085018D4A02EB41010872607905EB8501B4
:1047B00002EB4101487205EB850002EB400000F17D
:1047C0000801022001F063FB08B91020E1E7681C32
:1047D000C5B203F04DFFA842E0DC22E003F048FF41
:1047E000E178884201DC0E20D3E72079E17801EB03
:1047F0008101794A02EB410108726079E17801EBAD
:10480000810102EB41014872E07800EB800002EB8D
:10481000400000F10801022001F039FB08B9102026
:10482000B7E70120B5E72DE9F04104460D461646ED
:10483000A078032802DD0F20BDE8F081E07808B100
:10484000A078F0B901270020287015E007EB870059
:10485000614901EB4000007A2978705407EB87002A
:104860005D4901EB4000417A2878401C315428789A
:10487000801C2870781CC7B203F0FAFEB842E5DC51
:1048800017E003F0F5FEE178884201DC0E20D3E763
:10489000E07800EB8000504901EB4000007A307076
:1048A000E07800EB800001EB4000407A707002205D
:1048B00028700120C0E770B50446A078052801DC07
:1048C000A07808B90F2070BDE078D0B9012513E0B9
:1048D000207905EB8501404A02EB4101887105EB27
:1048E000850002EB4000811D012001F0D0FA08B9DB
:1048F0001020E8E7681CC5B203F0BAFEA842E7DC66
:104900001AE003F0B5FEE178884201DC0E20DAE718
:104910002079E17801EB81012F4A02EB4101887196
:10492000E07800EB800002EB4000811D012001F0E7
:10493000AEFA08B91020C6E70120C4E72DE9F0411E
:1049400004460D461646A078032802DD0F20BDE878
:10495000F081E07808B1A078A8B90127002028707C
:104960000CE007EB87001C4901EB400080792978B7
:1049700070542878401C2870781CC7B203F078FE69
:10498000B842EEDC10E003F073FEE178884201DC0F
:104990000E20DCE7E07800EB80000F4901EB4000DF
:1049A00080793070012028700120D0E72DE9F04196
:1049B00004460D461746E178207901EB002086B2C7
:1049C0006079822802DD0E20BDE8F081B6F5004F47
:1049D00004DB1120F8E700008824002060793044CF
:1049E000B0F5004F02DD7042287001E06079287058
:1049F00029783A463046FDF7C5F808B91020E3E7B4
:104A00000120E1E710B50446A07810B901F0CFF914
:104A100008E0A078052805D1E1788800221D04214E
:104A2000FDF7ECF8012010BD70B506460C461546A2
:104A30002946204601F000FA012070BD10B5044659
:104A4000A078012801DD0F2010BDA078012805D134
:104A5000E07818B9022001F08FF91CE0A07818B9AD
:104A6000012001F089F916E003F002FEE1788842A6
:104A70000FDDE07801F023F9E07801F001F9E0784A
:104A800001F0D6F8E07801F0E0FBE078FEF790FA6C
:104A900001E00E20D8E70120D6E770B50446D4F82F
:104AA0000360A078042810D103F09DFC4FF47A71C4
:104AB0007143B0FBF1F201FB1205B54B2A46002110
:104AC000084600F0FFF9012070BD0F20FCE770B52B
:104AD0000446A07808B90F2070BDE078022804D001
:104AE00003280ED005281FD114E02079611DFEF7A0
:104AF000EBF80546012D02D1A0700220ECE7284614
:104B0000EAE761792079FEF792F9012800D1E3E71D
:104B10001520E1E761792079A21DFEF710F901283F
:104B200000D1D9E71620D7E700BF00BF0E20D3E79A
:104B300070B504460D461646E078012802D00428D8
:104B400014D109E06179207933462A46FEF71DF930
:104B5000012800D170BD0AE06179207933462A46E8
:104B6000FEF749F908B10120F4E700E000BF00BFFB
:104B70001520EFE770B50446A07808B90F2070BD86
:104B8000E078022804D003280ED005281FD114E0B5
:104B90002079611DFEF76DF90546012D02D1A07047
:104BA0000220ECE72846EAE761792079FEF73FF931
:104BB000012800D1E3E71520E1E761792079A21D02
:104BC000FEF7B1F9012800D1D9E71620D7E700BFD9
:104BD00000BF0E20D3E710B50446A07808B90F2017
:104BE00010BDE07818B90120FEF730F805E0E07854
:104BF000FEF7DEF908B91720F2E70120F0E770B5FB
:104C000006460D461446634800884AF655218842F8
:104C100029D16048801C0068401C20B35D48801C7E
:104C2000006800B35B48801C0068B0F1443F1AD0B4
:104C30005848801C0068B0F1883F14D05548801C4B
:104C40000068554988420ED05248801C0068890689
:104C5000D1F88613C943884205D14FF00060D0F8DF
:104C60008203206002E04FF0FF302060201D02F040
:104C7000EEF810202870012070BD10B586B00446F3
:104C8000142101A804F048FA4FF0FF300090A078FA
:104C9000082802DA0F2006B010BD3E4800884AF608
:104CA000552188422DD13B48801C0068401C40B3F0
:104CB0003848801C006820B33648801C0068B0F17A
:104CC000443F1ED03348801C0068B0F1883F18D0A4
:104CD0003048801C00683049884212D02D48801C22
:104CE00000688906D1F88613C943884209D14FF07C
:104CF0000060D0F88203D4F80310884209D1012063
:104D0000C9E72648016807200059814201D00E20DA
:104D1000C1E72348049054F8030F2249896841F001
:104D20000101204A91601D490839096811601B4939
:104D3000091F096811601949096811601146086066
:104D4000096805914AF65520ADF804002068CDF8B1
:104D5000060054F80309C043CDF80A0001AA142143
:104D60000C4802F089FB80B1D4F8030000906A4639
:104D700004214420FCF742FF0B4B4FF47A720021D0
:104D8000084600F09FF8012085E7022083E7000035
:104D90006B5B00088003000842455354F0F7FF1F87
:104DA000A542BD5A003002404D83000810B50320D3
:104DB00000F0F9FD1248FCF72EF910BD10B50446BD
:104DC00010480068B0F15A3F01D0122010BD0E48C3
:104DD000D0F808010A4988420BD10C48FCF71BF9AE
:104DE000AFF237034FF496620021084600F06AF8EC
:104DF00004E00348FCF70FF902F0BBFC0120E5E7F3
:104E0000438500085C000020E0090020957F000831
:104E10000020C9490860704730B503460C46194662
:104E20000AE00846491CC44D2D1D05EB0010C06862
:104E3000904201D1C8B230BDA142F2D30020FAE7BE
:104E40007FB50546BC4A1288BB4B5B88D118BA4A6D
:104E500010882A46FFF7E0FF044694B3B64800885E
:104E6000201A012824D9601EB34A121D02EB00113A
:104E700010226846FBF79AFEAF4B1B88E31A1A0113
:104E8000AD4B1E881B1D03EB06111B1F1B885B1CF3
:104E9000A94E361D06EB0310FBF7B3FE311F0A883F
:104EA000091D01EB021010226946FBF77FFE00BFCF
:104EB000A1480088401CA049088008464088401E40
:104EC00048807FBD2DE9F0410746884615461E46BD
:104ED00000BF99480088984949880844142802DB93
:104EE0000020BDE8F08100BF93480088924A5288B4
:104EF000811832460020FFF78FFF00BB8E4B5B8886
:104F00001A018D4BB3F800C01B1D03EB0C111B1FC6
:104F10001B885B1CDFF820C20CF1040C0CEB0310A7
:104F2000FBF76FFE844804880088401C8249088093
:104F300000218148001D00EB041001700CE0304698
:104F4000FFF77EFF7C4800887B4A528881183246F2
:104F50000020FFF761FF441E7748001D00EB04109E
:104F600047707548001D00EB0410C6604FB905B9C5
:104F70006D1C4FF0010800216F48001D00EB04106C
:104F800001706D48001D00EB0410A0F802806A4813
:104F9000001D00EB0410456000216748001D00EB78
:104FA0000410816001209CE770B5054662480088C6
:104FB000614A528881182A460020FFF72DFF0446D7
:104FC00004B35D4B1B885C4E768833441B1B1A016F
:104FD000594B1B1D03EB0411631E574E361D06EB88
:104FE0000310FBF70EFE301F0088A04205D2301FD1
:104FF0004088401E311F488004E04F480088401E12
:105000004D49088070BD7FB505464B4801882A464A
:105010000020FFF701FF044654B3601E464A121DEC
:1050200002EB001110226846FBF7C0FD424B1B88C3
:105030001B1B1A01404B1B1D03EB0411631E3E4E4C
:10504000361D06EB0310FBF7DCFD311F0988491EF6
:105050008AB2311F0A80091D01EB02101022694635
:10506000FBF7A4FD301F4088401C311F488000BF63
:105070007FBD70B50024304C241D27E0207820B37C
:10508000E56800202070607830B1012807D0022840
:105090000FD0032816D10EE00120207000BF6188D8
:1050A000481E608021B92846FFF77EFF103C0AE0C9
:1050B00000BFA84707E0A84718B92846FFF774FFC4
:1050C000103C00E000BF00BF00BF10341A48018848
:1050D000001D00EB0110A042D0D870BD1648001D85
:1050E0000AE08168491C81604268914203D3002133
:1050F00081600121017010300F490A88091D01EB00
:1051000002118142EDD8704770B504460A48008804
:10511000094A5288811822460020FFF77DFE054685
:105120000DB9002070BD04480088801CA84201DD34
:105130000120F7E70220F5E70420002030B5024601
:10514000002011460B889B0B33B1012B1CD0022B86
:1051500031D0032B52D13DE00B7803F03F0303EB3A
:1051600083035B000C88C4F38514C4EB041404EBC4
:10517000840403EBC4040B88C3F3013340F2654598
:105180006B4304EB43103AE00B7803F03F034FF41A
:10519000167463430C88C4F3841440F265456C4371
:1051A00003EB44140B88C3F3C22340F62F556B4323
:1051B00004EB032023E00B7803F01F0348F6A04420
:1051C00063430C88C4F3481440F62F556C4303EB3B
:1051D000042014E00B7803F00F030C88C4F30514CB
:1051E00004EB840403EB44030C88C4F38324C4EB72
:1051F000041404EB840403EBC40000BF00BF00BF31
:1052000030BD01B56946BDF80000800B30B1012802
:1052100011D002281CD003282FD121E0087800F0FB
:105220003F003B2804DC0888C0F385103B2801DDE3
:10523000002008BD23E00888C0F38410172804DC90
:10524000087800F03F003B2801DD0020F1E716E080
:10525000087800F01F00172801DD0020E9E70EE0C4
:10526000087800F00F00092804DC0888C0F3051056
:105270003B2801DD0020DCE701E00020D9E700BF8A
:105280000120D6E70146C1F30D00002801DD012011
:1052900070470020FCE770B506460C4615463046C0
:1052A000FFF7F0FF40B92046FFF7ECFF002801DCD4
:1052B000002D01DD002070BD3046FFF7A2FF08B9C8
:1052C0000020F8E72046FFF79CFF08B90020F2E72E
:1052D0000120F0E770B504460D4600260AE0227969
:1052E00061882088FFF7D7FF08B9002070BD641DD2
:1052F000701CC6B2AE42F2DB0120F7E7F0B5A1B0F8
:105300000446A07800282ADDA778E51C21E0A878CB
:10531000802802DD0F2021B0F0BD02208DF80400AE
:10532000A878C21C29460DF10500FBF73FFC01A837
:10533000FBF744FD0646012E08D0BDF80500A4F891
:10534000030066710320A0700220E4E7A878C01C67
:105350000544E01C3844A842D9D80120DBE70F20DF
:10536000D9E770B588B00446A078002826DDA67875
:10537000E51C1DE0A8780D2802DD0F2008B070BDE7
:10538000A87800F1080229466846FBF70FFC68463A
:10539000FCF775FB48B9BDF80100A4F803001C2117
:1053A00061710320A0700220E8E7A8780830054466
:1053B000E01C3044A842DDD80120DFE70F20DDE704
:1053C0002DE9F043C1B007460C4616460020207078
:1053D000B878002840DD97F8029001A800EB090595
:1053E00080464A46F91C4046FBF7E0FB2EE00520CC
:1053F000287018F8010B687018F8010BA8700020CD
:10540000E8702846FBF7DAFC01281FD1697822787A
:10541000501C2070B154A9782278501C2070B154CF
:10542000E878401EC1B2E9702278501C2070B15457
:10543000EA7821788819691DFBF7B8FB2078E978AC
:10544000084420702078C82800DD03E001A8484403
:105450004045CCD800BF50E04FF00008387800EB52
:105460008000634901EB8000C56800BF28790128EE
:105470002DD138788DF8000128788DF801010020B1
:105480008DF80201E86810B32078C01C82190DF273
:10549000031140A8EB689847012818D13978227881
:1054A000501C2070B15429782278501C2070B154BF
:1054B0009DF803112278501C2070B15420789DF87B
:1054C0000311084420702078C82800DD13E03978E3
:1054D00001EB8101464A02EB81010869804708F12E
:1054E0000101C9B28846884205DD05F11400054670
:1054F0000068FF28BAD900BF00BF012041B0BDE855
:10550000F08370B5044603F0B3F80546A07801288F
:1055100001D00F2070BDE078A84201D30E20F9E73A
:10552000E078A8B903F0A4F805460EE06D1E05EB7F
:1055300085002F4901EB8000806830B105EB8501C3
:105540002B4A02EB810188688047002DEED10FE0E5
:10555000E07800EB8000264901EB8000806838B1DC
:10556000E17801EB8101224A02EB810188688047E2
:10557000204B3222C8210120FFF7A4FC0120C9E7FB
:10558000F0B5B3B004460E46002704EB840018497A
:1055900001EB8000C5688DF804408DF8056000209F
:1055A0008DF8060000BF2868B0420CD1E86850B101
:1055B00002AA511E01A8EB689847012803D19DF863
:1055C000070033B0F0BD04EB8401094A02EB81010E
:1055D00008698047791CC9B20F46884205DD05F18C
:1055E000140005460068FF28DDD90020E9E7000027
:1055F000709D0008DD73000803460868984202D8D1
:105600001068984201D2002070470120FCE72DE984
:10561000F04106460D4606F0030010B10020BDE83B
:10562000F081AC480088402808D0802809D0B0F527
:10563000807F09D0B0F5007F0CD108E04FF4F8442A
:105640000AE04FF43C4407E04FF4C83404E04FF460
:10565000483401E0002400BF00BFE8687043A04266
:1056600001D90020DBE79C4806709C492868086047
:1056700068684860A8688860E868C860002705E036
:105680000020974941F82700781CC7B2402FF7D374
:1056900092498868214601F0A7FEC0E72DE9F04154
:1056A00004460D4617468D48C068A04201D3C82D58
:1056B00001DDBDE8F0816009894951F8200004F05E
:1056C0001F02012191400840C0B984488068824986
:1056D000097804FB01063A462946304601F09EFE51
:1056E00060B160097E4951F8200004F01F020121D9
:1056F0009140084361097A4A42F8210000BFD8E787
:1057000030B502460B4600210020107013E0480916
:10571000734C54F8200001F01F050124AC402040D8
:1057200040B923F8021B1078801C10701078642890
:1057300000DD04E0491C6948C0688842E7D800BF22
:10574000107808B9012030BD0020FCE770B505468F
:105750000C46A9B2614A9068FBF7D0FE201A84B2C9
:105760000CB9012070BD0020FCE770B505465D480E
:1057700005805D4C12E001F031FF2168884205D1BF
:10578000584A0421204601F049FE70BD2068000CF3
:10579000544988702068000EC870241DB4F1082F89
:1057A000E9D34E4A10215048203801F04DFE4FF405
:1057B00080614D48203801F017FE484A10214A48C0
:1057C000203801F02BFE2846FFF7CFFFDDE710B5AC
:1057D000454C11E001F002FF216888420BD1241FE3
:1057E000208880B2492803D3208880B25D2800D960
:1057F00005E0207810BD241DB4F1082FEAD300BFC6
:105800005320F7E770B50446FFF7E1FF05464FF474
:105810008061204601F0E8FD304A1021204601F069
:10582000FDFD2846FFF7A1FF70BD70B50546C5EB2D
:10583000051000EB80005A302A4988702A4C11E08C
:1058400001F0CCFE2168884205D1264A0421204679
:1058500001F0E4FD70BD2088224908802068000E18
:10586000C870241DB4F1082FEAD31C4A10211E4829
:10587000203801F0E9FD4FF480611B48203801F029
:10588000B3FD164A10211848203801F0C7FD2846FC
:10589000FFF7CBFFDEE710B5134C15E001F09EFEDD
:1058A000216888420FD1241F2068C0F30740A52833
:1058B00005D02068C0F307405A2800D007E02068D0
:1058C000C0F3004010BD241DB4F1082FE6D300BF83
:1058D0000120F7E7E0F7FF1F3000002048210020FB
:1058E000582100202C0000202004000810B5AF4BE8
:1058F0000122FF210020FDF768FC10BD30B5C1B0CA
:1059000004464FF4807101A803F006FC02F0B0FEDB
:10591000054619E014B1A54201D005B1A4B98DF82E
:1059200004509DF808100DF10A000A18C11E01A8C4
:10593000FFF746FD8DF809009DF808009DF8071057
:105940000844C0B28DF808002800A5F10101CDB2CD
:10595000E0D19DF80800401CC0B28DF808009DF809
:1059600008200DF1090300210846FDF70FFC41B0A6
:1059700030BD10B502F03FFD4FF46161B0FBF1F2B4
:1059800001FB120000EB4001C1EBC010884901EBA4
:10599000C004884B224600210846FFF793FA0020F6
:1059A000FFF7ACFF10BD70B5044680480470012CB1
:1059B00002D14FF47A7500E0052534B97D4B40F6ED
:1059C000B83200210846FFF77DFA7B4B2A460021BA
:1059D0000846FFF777FA70BD10B502F049FE04469D
:1059E00034E004EB8400754901EB4000007A30B3E9
:1059F00004EB4400724901EB8000007A012825D1B4
:105A000004EB440051F82000401C04EB44016C4AB4
:105A100042F8210000EB800004EB440102EB81011D
:105A20004968B1EB800F11D82046FFF767FF0020CF
:105A300004EB4401624A02EB8101087206E0002097
:105A400004EB44015E4A02EB81010872601EC0B2A1
:105A50000400C6D101240AE004EB4400584901EBDC
:105A60008000007A012800D110BD601CC4B202F091
:105A7000FFFDA042F0DCAFF29F00FFF795FA00BFF8
:105A8000F2E770B506461EB13446701CC5B203E09D
:105A9000012402F0EDFD054635E004EB84004749A2
:105AA00001EB4000007A28B302F09DFC04EB840176
:105AB000424A02EB4101497AB0FBF1F201FB1200CC
:105AC0006421484300EB800040F6C41101EB400024
:105AD00004EB44013A4A02EB81014860002004EBE8
:105AE000440142F82100012004EB440102EB810152
:105AF000087206E0002004EB4401314A02EB810108
:105B00000872601CC4B2AC42C7DBAFF2331314227C
:105B100000210220FFF7D6F970BDF0B5C1B00546EF
:105B20000E46174600244FF4807101A803F0F4FAE2
:105B300031462846FFF724FD0446A4B101208DF824
:105B400004008DF805508DF806608DF80740224658
:105B5000394602A8FBF72AF8201DC2B201AB00218A
:105B60000846FDF713FB41B0F0BD0EB503208DF8DC
:105B7000000014480068CDF8010012484068CDF8D4
:105B800005001048407A401CC0B20E4948728DF89A
:105B900009000A2269460C48FBF7AEFB20B9002237
:105BA00002210846FCF7A2F80EBD000031000020DB
:105BB00080EE360073590008ED5800088824002054
:105BC0005822002078230020000B002010B500226E
:105BD00020214FF43E60FCF74DF800224FF4807115
:105BE0004FF4E050FCF746F8002220214FF4E85033
:105BF000FCF740F810BD70B5002500240CE000252E
:105C000006E00020FE4901EB84014855681CC5B23E
:105C1000042DF6DB601C84B2FF2CF0DD002240F284
:105C200001414FF4FA60FCF725F8FFF7CFFF70BD94
:105C30002DE9F05F8246504603F0DEFB80460022ED
:105C4000F04B03F0EDFB064600224FF0814303F0DA
:105C5000E7FA044603F08CFB834600222821FCF778
:105C600009F8BDE8F09F10B5012404E02046FFF7D5
:105C7000DFFF601CC4B202F0FBFCA042F6DC10BDEA
:105C800010B5044604EB8400DF4901EB8000406856
:105C900038B104EB84000A4602EB800041682046DC
:105CA000884710BD10B5002404E02046FFF7E8FF48
:105CB000601CC4B202F0DCFCA042F6DC10BD10B5E2
:105CC00004464FF0FF3004EB8401D04A42F8110043
:105CD000002004EB840102EB41018880012004EBE9
:105CE000840102EB41018871002004EB840102EB86
:105CF0004101C871012004EB840102EB41010872EB
:105D0000032004EB840102EB4101487204EB84019F
:105D1000134603EB4102210101F180000A21FBF748
:105D20006DFF10BD10B5002404E02046FFF7C7FF4B
:105D3000601CC4B202F09CFCA042F6DC10BD10B5A1
:105D40004FF0FF30B2490860002002F0C2FAB049BB
:105D50004860022008720020487214220021AC48DA
:105D60000A30FAF745FF0020A94988770A461F2123
:105D70004020FBF743FF10BD38B50446A5A00068DE
:105D80000090FFF7DCFFFFF7CDFFFFF78BFFFFF77A
:105D90006AFFFFF730FF0120FCF758FF022C02D109
:105DA0006846FCF7EAF90120FFF7FDFD38BD10B5A4
:105DB000002240211046FBF75DFF10BD10B5944A4C
:105DC0001F214020FBF7DEFE9149486802F081FA6E
:105DD000C0B1AFF21703322200210846FFF772F874
:105DE0008D480078401CC0B28B490870032812DD32
:105DF000AFF23700FFF7D8F8FFF7D9FF0120FFF720
:105E0000BBFF08E084480078002804DD00208249B8
:105E1000087002F02FFC10BD38B50446A0006A4699
:105E20000421FBF7AFFE0098401C0090A0006A46DA
:105E30000421FBF7E3FE38BD70B504460D46402053
:105E4000207021782A460020FBF79CFE70BD70B5BB
:105E500005460C466E49611A01F14000224629466A
:105E6000FBF7CCFE70BD70B504460D4609E004EBAF
:105E7000840105EB4102210101F180000A21FBF7B9
:105E800081FE2000A4F10101CCB2F0D170BD2DE95A
:105E9000F04105460C465D48261A0A20B6FBF0F094
:105EA000000180300A21B6FBF1F201FB12614718B4
:105EB000224629463846FBF7A1FEBDE8F0812DE9D0
:105EC000F74F86B089461446484603F095FA0546D2
:105ED0000022524B03F0A4FA82468B46069803F048
:105EE0008BFA07460022474B03F09AFA0546002238
:105EF0004FF0814303F094F952465B46CDE900012F
:105F000003F08EF9CDE9020103F032FA05AA02216D
:105F10000490FBF737FE402C0CDA0120A040BDF8BE
:105F20001410084030B10120A040BDF81410814386
:105F3000059107E0FF2C02D10020059002E009B096
:105F4000BDE8F08F484603F057FA05460022334B70
:105F500003F066FA82468B46069803F04DFA074630
:105F60000022284B03F05CFA054600224FF08143E3
:105F700003F056F952465B46CDE9000103F050F9B3
:105F8000CDE9020103F0F4F905AA02210490FBF720
:105F900035FE00BFD3E72DE9F74F8EB00E4614460D
:105FA0002546E11704EB5171C81003F00EFACDE954
:105FB0000601304603F020FA07460022174B03F093
:105FC0002FFACDE902010E9803F016FA07460022D7
:105FD0000C4B03F025FA824600224FF0814303F078
:105FE0001FF9CDE90001DDE9022303F019F9CDE93C
:105FF0000401DDE9062303F013F9CDE908010FE000
:10600000D81B002000004440709D00088824002018
:106010007823002000F801533200002000002040C7
:1060200003F0A6F9A1460A90E01704EB50700BA903
:1060300001EBE00201210A98FBF7A4FD402C55DAA0
:10604000E21704EB5272D2100BAB9A5CE31704EB2D
:106050005373DB10A4EBC3050123AB401A40002AA5
:1060600044D1E21704EB5272D2100BAB9A5C21467A
:10607000E31704EB5373DB10A4EBC3050123AB4020
:106080001A432046E31704EB5373DB100BADEA54BD
:10609000304603F0B1F907460022F84B03F0C0F98F
:1060A000CDE908010E9803F0A7F90022F44BCDE9E1
:1060B000040103F0B5F9074600224FF0814303F0D5
:1060C000AFF8CDE90601DDE9082303F0A9F8814620
:1060D00003F04EF983462546E01704EB50700BA9F8
:1060E00001EBE00201215846FBF788FD11B0BDE845
:1060F000F08F2DE9F74F8EB00E4614462546E11776
:1061000004EB5171C81003F060F9CDE90601304687
:1061100003F072F907460022D84B03F081F9CDE96C
:1061200002010E9803F068F907460022D44B03F0F1
:1061300077F9824600224FF0814303F071F8CDE9F0
:106140000001DDE9022303F06BF8CDE90401DDE98C
:10615000062303F065F8CDE9080103F009F9A1462B
:106160000A90E01704EB50700BA901EBE00201214B
:106170000A98FBF707FDE21704EB5272D2100BAB43
:106180009A5CE31704EB5373DB10A4EBC305012304
:10619000AB401A401AB1012011B0BDE8F08F0020C9
:1061A000FAE738B5044600200090202C21DA254675
:1061B000E11704EB5171C91001F5E8506A4601215D
:1061C000FBF7E0FC2046E11704EB5171C910A4EB8A
:1061D000C102012191409DF800208A430092E117FD
:1061E00004EB5171C91001F5E8506A460121FBF733
:1061F00005FD38BD70B50446601EC21700EB527233
:10620000D210A04B9A5C611ECB1701EB5373DB10CD
:10621000A1EBC3050123AB409A43C31700EB5373B3
:10622000DB10984DEA54651EE91705EB5171954B4B
:1062300003EBE102661EF11706EB5171C91001F57F
:106240003E600121FBF7DAFC70BD70B5ADF5007D55
:1062500005460024002600BF10E08B4810F82400FB
:10626000A84209D12046FDF730FC601CC2B230467E
:10627000711C8EB240A90A54601C84B2FF2CECDD64
:106280006A464FF480714FF4E050FBF77BFC00242A
:106290001AE040A8005DA8B140A9085DFFF7AAFF79
:1062A00040A8005D1DF8000060B140A9095D1DF81F
:1062B0000110491EC8B2FFF774FF002040A9095D14
:1062C0000DF80100601C84B2B442E2DB6A464FF470
:1062D00080714FF4E050FBF791FC0DF5007D70BD2F
