:020000040800F2
:10C40000882400206DC7000875C7000877C700089A
:10C4100079C700087BC700087DC70008000000003E
:10C420000000000000000000000000007FC70008BE
:10C4300081C700080000000083C700081DDF000856
:10C4400087C7000887C7000887C7000887C7000894
:10C4500087C7000887C7000887C7000887C7000884
:10C4600087C7000887C7000887C7000887C7000874
:10C4700087C7000887C7000887C7000887C7000864
:10C4800087C7000887C7000887C7000887C7000854
:10C4900087C7000887C7000887C7000887C7000844
:10C4A00087C7000887C7000887C7000887C7000834
:10C4B00087C7000887C7000887C7000887C7000824
:10C4C00087C7000887C7000887C7000887C7000814
:10C4D00087C700088FE000084FE4000887C70008FE
:10C4E000E3D9000887C7000887C7000800F002F8F2
:10C4F00000F03AF80AA090E8000C82448344AAF1C4
:10C500000107DA4501D100F02FF8AFF2090EBAE8C1
:10C510000F0013F0010F18BFFB1A43F00103184777
:10C52000746E0000946E0000103A24BF78C878C181
:10C53000FAD8520724BF30C830C144BF04680C6029
:10C54000704700000023002400250026103A28BF71
:10C5500078C1FBD8520728BF30C148BF0B60704775
:10C560001FB51FBD10B510BD06F07CF91146FFF7D1
:10C57000F7FF01F0D7FD06F09AF903B4FFF7F2FFD9
:10C5800003BC06F09FF900000CB50020019000905C
:10C590006C48006840F480306A49086000BF694810
:10C5A000006800F4003000900198401C0190009851
:10C5B00018B90198B0F5A06FF1D16248006800F495
:10C5C000003010B10120009001E0002000900098A0
:10C5D000012843D15C48006840F010005A490860C7
:10C5E0000846006820F0030008600846006840F034
:10C5F0000200086053484068524948600846406855
:10C6000048600846406840F48060486008464068DA
:10C6100020F47C1048600846406840F4E810486008
:10C620000846006840F08070086000BF4548006818
:10C6300000F000700028F9D04248406820F0030064
:10C64000404948600846406840F00200486000BF2A
:10C650003C48406800F00C000828F9D10CBD10B52A
:10C66000FFF792FF10BD10B53648006840F001009A
:10C6700034490860084640683449084031494860F8
:10C6800008460068324908402E490860084600689C
:10C6900020F4802008600846406820F4FE004860CE
:10C6A0004FF41F008860FFF7DAFF2A4800682A4924
:10C6B000086010BD10B5002100200022214B5B68EE
:10C6C00003F00C0121B1042906D0082928D107E084
:10C6D000224B234C236027E0204B214C236023E096
:10C6E000184B5B6803F47010164B5B6803F48032E0
:10C6F000022303EB904022B91A4B4343184C2360AA
:10C700000DE0104B5B6803F4003323B1154B43433A
:10C71000134C236003E0114B4343114C236003E0AF
:10C720000E4B0F4C236000BF00BF064B5B68C3F38A
:10C7300003130D4CE15C0A4B1B68CB40084C236093
:10C7400010BD000000100240002002400000FFF871
:10C75000FFFFF6FE0804000808ED00E000127A0072
:10C760000000002000093D00040000200948804727
:10C7700009480047FEE7FEE7FEE7FEE7FEE7FEE7C3
:10C78000FEE7FEE7FEE7FEE704480549034A054BDE
:10C790007047000067C60008EDC400088818002034
:10C7A000882400208818002008B51021002000F0FF
:10C7B0008CF9D0B91A4801680068401C184A10600A
:10C7C00029B9184B14220021022003F099F91448CA
:10C7D0000068642811D114A000680090022003F0C2
:10C7E0009EFD684603F094FB07E00D48006820B109
:10C7F00000F004F800200A49086008BD10B50822BE
:10C800001021002000F01AF91021002000F044F956
:10C81000044B4FF4FA620021022003F071F910BDBD
:10C8200014000020A9C70008009001007F4880493B
:10C8300048608048486070477D48006940F080004B
:10C840007B49086170477A48C06800F0200020B139
:10C8500020207749C860012070470020FCE701468E
:10C8600000E0491E29B17248C06800F001000028AC
:10C87000F7D109B9012070476D48C06800F0140075
:10C8800020B114206A4AD0600120F4E70020F2E7CA
:10C8900070B505464FF40050FFF7E1FF0446B4B908
:10C8A0006348006940F0020061490861084645613B
:10C8B000006940F0400008614FF40050FFF7CFFFDF
:10C8C00004465B48006920F002005949086114B928
:10C8D000FFF7B9FF0446204670BD70B505460E4609
:10C8E0004FF44050FFF7BBFF04468CB95048006935
:10C8F00040F001004E4908612E804FF44050FFF790
:10C90000AEFF04464A48006920F00100484908612A
:10C910001CB9FFF798FF00B10124204670BD70B527
:10C9200005460C4616464FF44050FFF798FFF0B905
:10C930003F48006940F001003D4908610EE0308841
:10C940002880B61CAD1CA41E4FF44050FFF787FF93
:10C9500018B9FFF778FF08B902E001E0002CEED12A
:10C9600000BF3348006920F00100314908610CB96B
:10C97000012070BD0020FCE710B500244FF44050AA
:10C98000FFF76DFFD8B9FFF751FF2948006940F064
:10C990002000274908610846006940F0400008610E
:10C9A0004FF44050FFF75BFF18B9FFF74CFF00B1A1
:10C9B00001241F48006920F020001D49086120461D
:10C9C00010BD70B504460D4600264FF44050FFF7E9
:10C9D00046FFE0B9FFF72AFF1548006940F0100054
:10C9E000134908610846006940F04000086125705D
:10C9F0004FF44050FFF733FF18B9FFF724FF00B1A1
:10CA000001260B48006920F02000094908613046E2
:10CA100070BD0949096801600749091D096841603D
:10CA200005490831096881607047000023016745A6
:10CA300000200240AB89EFCDE8F7FF1FF0B50346B9
:10CA40001446254D05EB8322244DAD699E1C01271C
:10CA5000B7403D43214EB56100201AE001F00105C9
:10CA6000ADB1C50852F825504607F70E0F26BE4057
:10CA7000B543C60842F82650C50852F82550460767
:10CA8000F60E04FA06F63543C60842F82650491059
:10CA9000401C0029E2DCF0BD02460B460E4800EBCC
:10CAA0008221C8681843C860C86880B270470A4BC2
:10CAB00003EB8022D3688B43D3607047064B03EBB4
:10CAC0008022D3684B40D36070470246024800EB97
:10CAD0008223986808407047000801400010024017
:10CAE000002107E0052101E04A1E91B20029FBDC8C
:10CAF000421E90B20028F5DC704710B50322C02119
:10CB00000120FFF79BFFC0210120FFF7C5FF032293
:10CB100020210120FFF792FF20210120FFF7BCFF19
:10CB200010BD10B580210120FFF7B6FF4021012084
:10CB3000FFF7B2FF0220FFF7D3FF80210120FFF7AC
:10CB4000B6FF0220FFF7CCFF40210120FFF7AFFF27
:10CB500010BD10B580210120FFF7A9FF0220FFF7CB
:10CB6000BFFF40210120FFF797FF0220FFF7B8FF2A
:10CB700080210120FFF790FF0220FFF7B1FF10BDD9
:10CB800010B5044640210120FFF791FF0220FFF776
:10CB9000A7FF24B180210120FFF77EFF03E0802161
:10CBA0000120FFF784FF0220FFF79AFF40210120B8
:10CBB000FFF772FF0220FFF793FF40210120FFF7EC
:10CBC00076FF10BD10B50024082280210120FFF758
:10CBD00035FF80210120FFF75FFF0220FFF780FF74
:10CBE00040210120FFF758FF0220FFF779FF10E0F6
:10CBF000601C80B20446B0F5FA7F0ADD0322802172
:10CC00000120FFF71BFF80210120FFF745FF0020D7
:10CC100010BD80210120FFF758FF0028E8D14021F6
:10CC20000120FFF744FF0220FFF75AFF0322802173
:10CC30000120FFF703FF80210120FFF72DFF0220D5
:10CC4000FFF74EFF0120E3E770B5044640210120C5
:10CC5000FFF72DFF0220FFF743FF002520E004F03F
:10CC6000800020B180210120FFF716FF03E0802122
:10CC70000120FFF71CFF6006040E0220FFF730FFC3
:10CC800040210120FFF708FF0220FFF729FF402184
:10CC90000120FFF70CFF0220FFF722FF681CC5B23E
:10CCA000082DDCDBFFF78EFF70BD70B50646002453
:10CCB000082280210120FFF7C1FE80210120FFF71B
:10CCC000EBFE00251BE040210120FFF7F0FE0220D3
:10CCD000FFF706FF40210120FFF7DEFE0220FFF7ED
:10CCE000FFFE6006040E80210120FFF7EEFE08B172
:10CCF000601CC4B20220FFF7F3FE681CC5B2082D09
:10CD0000E1DB40210120FFF7D2FE0220FFF7E8FE21
:10CD1000032280210120FFF791FE80210120FFF7EF
:10CD2000BBFE0220FFF7DCFE3046FFF729FF20465E
:10CD300070BD70B505460C4600BFFFF7F2FE2846F1
:10CD4000FFF782FF10B9601E0400F6D1FFF701FF64
:10CD50000CB1012070BD0020FCE72DE9F041074631
:10CD60000E4615461C46FFF7DCFE3846FFF76CFF03
:10CD7000F0B13012FFF768FFD0B1F0B2FFF764FFF7
:10CD8000B0B1FFF7CEFE47F00100FFF75DFF78B1CD
:10CD900006E00020FFF789FF05F8010B601EC4B212
:10CDA000012CF6DC601EC4B20120FFF77EFF287064
:10CDB000FFF7CFFE14B90120BDE8F0810020FBE7AA
:10CDC0002DE9F04107460D4616461C46202101205C
:10CDD000FFF76DFEFFF7A5FE3846FFF735FF98B168
:10CDE0002812FFF731FF78B1E8B2FFF72DFF58B1F5
:10CDF00007E016F8010BFFF727FF00B903E0601EFC
:10CE0000C4B2002CF5DC00BFFFF7A3FE20210120F7
:10CE1000FFF742FE14B90120BDE8F0810020FBE7D6
:10CE20002DE9F04107460D4616461C4620210120FB
:10CE3000FFF73DFEFFF775FE3846FFF705FF90B19F
:10CE40002812FFF701FF70B1E8B2FFF7FDFE50B105
:10CE500006E03046FFF7F8FE00B903E0601EC4B2FA
:10CE6000002CF6DC00BFFFF774FE20210120FFF745
:10CE700013FE14B90120BDE8F0810020FBE700009B
:10CE800010B50222D1010120FFF7D8FD4FF48071C7
:10CE90000120FFF701FE022211020120FFF7CEFD63
:10CEA0004FF400710120FFF7F7FD10BD704710B57A
:10CEB0004FF400710120FFF701FE10BD10B54FF4D3
:10CEC00080710120FFF7FAFD10BD10B54FF480719D
:10CED0000120FFF7ECFD10BD10B54FF4807101206B
:10CEE000FFF7DAFD10BD10B54FF400710120FFF718
:10CEF000DEFD10BD10B54FF400710120FFF7CCFD31
:10CF000010BD10B52748007818B9FFF7ECFFFFF700
:10CF1000E3FF24480078401C224908700846007846
:10CF2000082810DA0846007800280CDDFFF7C6FF55
:10CF3000FFF7BDFFAFF235034FF4FA720021084648
:10CF400002F0DEFD0AE0AFF2450002F04BFE0020E9
:10CF500014490870FFF7CEFFFFF7BEFF10BD10B5F4
:10CF600011480088401C1049088008460088B0F528
:10CF7000FA6F0CDA4FF400710120FFF798FDAFF261
:10CF8000210301220021084602F0BAFD07E04FF418
:10CF900000710120FFF780FD00200349088010BDCB
:10CFA00070470000180000201A00002070B50546E8
:10CFB0000C46FFF73BFC03E0A4F5806405F58065B3
:10CFC0002846FFF765FC10B1B4F5806FF4D8FFF781
:10CFD00033FCB4F5806F01D8012070BD0020FCE760
:10CFE0002DE9F04106460C46174604F0010000B159
:10CFF000641CFFF71BFC3A4621463046FFF78FFCC6
:10D000000546FFF719FC2846BDE8F081034604E019
:10D0100018681060121D1B1D091F0029F8D101207E
:10D02000704710B5034603E018781070521C5B1C63
:10D030000800A1F10101F7D1012010BD2DE9F04F49
:10D04000ADF2044D80460D46924605F0010000B158
:10D050006D1CFFF7EBFBB8F1006F02D3B8F1016F65
:10D0600004D300200DF2044DBDE8F08FA8F1006B51
:10D070004FEA9B26CBF30909C9F58064A54200D885
:10D08000ACB24DE04FF0006101EB86206A464914D6
:10D09000FFF7BCFF002708E009EB07001DF80000C0
:10D0A000FF2800D003E0781C87B2A742F4DB00BF62
:10D0B000A7421EDA4FF0006101EB8620FFF7E8FB84
:10D0C000CDF80004002707E01AF8070007EB090174
:10D0D0000DF80100781C87B2A742F5DB4FF0006124
:10D0E00001EB86206A464914FFF719FCCDF80004CD
:10D0F00006E0524621464046FFF711FCCDF80004F9
:10D10000A54200D10DE0761C4FF00009A244A044D6
:10D110002D1BB5F5806F02D94FF4806400E0ACB2EE
:10D12000B0E700BFFFF788FBDDF800049AE71CB505
:10D130001D4903C9CDE900011C48406940F0400089
:10D140001A4948611A48806840F00100184988600F
:10D150000846007940F0FF0008711648006816493B
:10D1600088421CD013490A3908681149896841F07E
:10D1700001010F4A91601149096811600F49091DA9
:10D18000096811600D49083109681160114608608D
:10D19000096801916A4608210648FFF74FFF1CBD48
:10D1A0004FF0FF3070470000B82E01080010024019
:10D1B000003002408C030008A542BD5AE8F7FF1F6B
:10D1C00010B54FF400710120FFF778FC10BD10B5C9
:10D1D00004464FF400710120FFF75EFC552C0CD182
:10D1E0004FF400710120FFF762FCFE4B4FF4FA721E
:10D1F0000021084602F084FC05E0FA4B19221421B4
:10D20000012002F07DFC10BD08B1012100E00021E9
:10D21000F54A11707047F5487047F5480078704737
:10D2200070B505460C464FF480510120FFF73FFCD6
:10D23000284600F07BFC204600F078FC06464FF4C0
:10D2400080510120FFF728FC304670BD10B5E94839
:10D25000006820F48060E74908600222C9140120B8
:10D26000FFF7ECFB0222D1020120FFF7E7FB0422CB
:10D2700011020120FFF7E2FB042202210120FFF747
:10D28000DDFB4FF480610120FFF706FC0221012045
:10D29000FFF702FC022211020120FFF7CFFB4FF43F
:10D2A00000710120FFF7F8FB00F06BFC042000F098
:10D2B000BBFC10BD0120D0490870704710B5052196
:10D2C0008720FFF7ADFF02218E20FFF7A9FF022183
:10D2D0008820FFF7A5FF00218820FFF7A1FF132179
:10D2E0008520FFF79DFF80218620FFF799FF002111
:10D2F0000320FFF795FF00210420FFF791FFBD48B1
:10D30000006840F48060BB49086010BD10B5B948A2
:10D31000006820F48060B749086000218E20FFF784
:10D320007FFF01218720FFF77BFF00218520FFF78A
:10D3300077FF00218620FFF773FF00210320FFF70E
:10D340006FFF00210420FFF76BFF022001F05AFC61
:10D3500010BD10B50446A94A2146022001F060FC28
:10D3600010BD10B500212620FFF75AFF0446A4483F
:10D370000078A04203DAA2480078201A02E0A04810
:10D380000078001B08284EDA64109D48007804EBF2
:10D3900060009B4908700846C078401CC0B2C87045
:10D3A000142860DD084600780A2803DB0846007868
:10D3B000DC2803DD0420FFF7CCFF30E09048007844
:10D3C00014308B49087008460178A720FFF728FF22
:10D3D0008C480068F8B100F096FD8A4909688842D7
:10D3E00005D200F090FD87490968081A04E000F0B2
:10D3F0008AFD84490968401A8349884206D204207C
:10D40000FFF7A7FF00207F49086008E000F07BFDE0
:10D410007C49086003E000F076FD7A49086000204E
:10D420007A49086010BD76484078A04203DA744813
:10D430004078201A02E072484078001B32280DDA4A
:10D440006F488078401CC0B26D49887004280ADD9E
:10D45000084604700020C870887004E06848447072
:10D4600000206749887069480068401C6749086067
:10D47000B0F5167F06D9002008600420FFF769FF89
:10D480000020CFE70120CDE710B5FFF7DFFE4FF416
:10D4900080510120FFF700FB4FF400610120FFF7EE
:10D4A000FBFA022001F0AEFB4FF400610120FFF710
:10D4B000FEFA322001F0A6FB00210320FFF7B0FEA8
:10D4C00000210420FFF7ACFE80218720FFF7A8FE93
:10D4D000022001F097FB00218720FFF7A1FE002129
:10D4E0008520FFF79DFE00218620FFF799FE002191
:10D4F0000320FFF795FE00210420FFF791FE79211C
:10D500008920FFF78DFE06218A20FFF789FEEA2198
:10D510008B20FFF785FEEA218C20FFF781FEFC219E
:10D520008D20FFF77DFE00218E20FFF779FE384821
:10D5300001789C20FFF774FE354841789D20FFF765
:10D540006FFE334881789E20FFF76AFE3048C1782D
:10D550009F20FFF765FE2E480179A020FFF760FEAF
:10D560002B484179A120FFF75BFE29488179A22051
:10D57000FFF756FE2648C179A320FFF751FE244845
:10D58000017AA420FFF74CFE2148417AA520FFF73D
:10D5900047FE1F48817AAA20FFF742FEAC21B02047
:10D5A000FFF73EFE0021B220FFF73AFE0221B32032
:10D5B000FFF736FE1021B420FFF732FE2821B520F8
:10D5C000FFF72EFE2D21B620FFF72AFED421B7202B
:10D5D000FFF726FE0021B820FFF722FE0021B92028
:10D5E00018E00000C1D100081F00002094000020B6
:10D5F0001E000020000401401D00002089D4000806
:10D600002800002030000020A06806002C00002028
:10D61000C02E0108FFF704FE4221BA20FFF700FEEA
:10D620004521BB20FFF7FCFD5321BC20FFF7F8FD8F
:10D630005421BD20FFF7F4FD4221BF20FFF7F0FD8C
:10D640004521C020FFF7ECFD5321C120FFF7E8FD85
:10D650005421C220FFF7E4FDFF21C320FFF7E0FDC6
:10D66000FF21C420FFF7DCFDFF21C520FFF7D8FD17
:10D67000FF21C620FFF7D4FDFC48C17AD820FFF770
:10D68000CFFDFA48017BE920FFF7CAFDF748417B4F
:10D69000EE20FFF7C5FDF548817BEF20FFF7C0FDC9
:10D6A000F248C17BF020FFF7BBFDF048017CF12080
:10D6B000FFF7B6FDED48417CF220FFF7B1FD5221A6
:10D6C000F520FFF7ADFD02F048FD493800EB800082
:10D6D0004006040E2146F920FFF7A2FDE348C17C75
:10D6E000F620FFF79DFDE148017DF720FFF798FD4B
:10D6F0000021F320FFF794FD0021F420FFF790FDB7
:10D700000A21FA20FFF78CFD0721ED20FFF788FDA5
:10D71000D7480178A720FFF783FDD64B4FF4C87296
:10D720000021032002F0ECF91E21FC20FFF778FD18
:10D730000C21FD20FFF774FD3221FE20FFF770FD64
:10D7400001220A21104600F0EEFA022328220021CD
:10D75000184600F09FFAC848006820F48060C64967
:10D760000860FFF7D3FDFFF7A9FDFFF7A3FD10BD8C
:10D7700010B503218820FFF753FD08218820FFF70B
:10D780004FFD01218E20FFF74BFD10BD2DE9F0412B
:10D7900006460C4690460025FFF7B8FDFFF7E8FF68
:10D7A0005520FFF714FD2146BE20FFF739FD1DE08F
:10D7B0004FF4805503E0142001F018FA6D1E00218B
:10D7C0000320FFF72DFD00F0200008B9002DF2D155
:10D7D000002707E016F8011BFF20FFF721FD601E60
:10D7E000C4B27F1C322F01D2002CF3D1002CDFD128
:10D7F00009218720FFF714FD4FF4C87001F0F6F9F6
:10D800004FF4805506E0681E050003D10420FFF7A1
:10D81000A0FD08E000210320FFF702FD00F0040056
:10D8200008B9002DEFD100BFFFF770FDFFF746FDEF
:10D83000BDE8F0812DE9F04F91B081464FF0000A2C
:10D840004FF0010BBCE05046411C01F0FF0A0528D7
:10D8500006DD0520FFF77DFD002088490870B7E050
:10D8600000210320FFF7DCFC044600210420FFF721
:10D87000D7FC064606F0800028B100212620FFF7DD
:10D88000CFFC7F49087004F0010018B100207B49EB
:10D8900008709DE004F01000E0B100250AE00021CE
:10D8A0007F20FFF7BDFC07463946484601F0A1FA44
:10D8B000681CC5B2322DF2DB70480078CD2803DD3C
:10D8C00000206E49087083E06C48007832306B4964
:10D8D000087000BF04F00200002871D06948007889
:10D8E000C8B900214B20FFF79BFC04460EE0002145
:10D8F0007F20FFF795FC05462946484601F079FA56
:10D9000083465E480078401C5C4908705B4800789C
:10D91000A042ECDB49E00DF10A0505F112070021F8
:10D920004B20FFF77DFC044632283DDA00205349A6
:10D9300008700CE000217F20FFF772FC01A94F4A1C
:10D94000127888544D480078401C4C4908704B4868
:10D950000078A042EEDBE87CB2280FD1F878BB2833
:10D960000CD101F0F4FAE968884207D138796428CB
:10D9700004DA434801783879434A115401F0E7FA50
:10D98000E96888420AD001F0E5FA80463E4810F87E
:10D990000800401C3C4901F8080000BF224601A9CC
:10D9A000484601F0B3F9834600BF002033490870B0
:10D9B000BBF1000F04D100220321022001F030F955
:10D9C0004FF480610120FFF780F800283FF43BAF5F
:10D9D00000BF2A48007808B9FFF770FC11B0BDE815
:10D9E000F08F10B52948FFF725FFAA20FFF7EFFBBE
:10D9F0004FF4806020491431086010BD10B5044612
:10DA00002348008870B9082C00D3012400F07BFA69
:10DA1000204931F81410B0FBF1F201FB1200801C18
:10DA20001B49088002210120FFF74FF8C0BB1848AE
:10DA30000088401E80B21649088090BB16480088B6
:10DA4000401C80B214490880642808DD002008804A
:10DA5000084B4FF4C8720021032002F051F8002057
:10DA60000B4908800D490880012010BDC02E010817
:10DA70001E00002063D300080004014020000020A5
:10DA80001C0000201F00002094000020A80200209D
:10DA900026000020D62E01082400002022000020AD
:10DAA00000E016E000201B4908801B4908801B4845
:10DAB0000088401C80B219490880B0F57A7F08DDE3
:10DAC00000200880164B4FF4C8720021032002F09A
:10DAD00017F8002010BD70B505460E4614461148D3
:10DAE0000078012813D12046FFF788FF78B1002283
:10DAF00031462846FFF74AFE00200A4908700A4BC3
:10DB0000C8220021084601F0FBFF012070BD002063
:10DB1000FCE7000026000020240000202200002056
:10DB200063D300081D000020B5D200080146002282
:10DB300008E01046531C9AB24FF6FE73984201DB80
:10DB4000002070474348008800F002000028F0D011
:10DB50004048001D0180002208E01046531C9AB284
:10DB60004FF6FE73984201DB0020EAE7394800884F
:10DB700000F001000028F0D03648001D0088C0B237
:10DB8000DFE700B53448006940F48040324908615D
:10DB90000846006920F4804008610846806940F02A
:10DBA000080088610846C06940F48040C8612B487D
:10DBB0000068C0F313002949086008460068284936
:10DBC00008432649086025480830006840F4604052
:10DBD0002249083108601F48083800881D49083963
:10DBE00008800846008840F40070088008460088D5
:10DBF00040F4807008800846008840F004000880E7
:10DC00000846008808800846008840F01800088010
:10DC10000846008808800846008840F040000880D8
:10DC2000FF20FFF783FF00BD00F007000949083916
:10DC300009884FF6C7721140064A083A118011460A
:10DC4000098841EAC00111801146098841F040016C
:10DC5000118070470838004000100240040C014059
:10DC60000000B0BB544A0A400243544B1A6070474C
:10DC70000146072323EA01021202504B1B1D1868BC
:10DC80004FF6FF0318404E4B184310434B4B1B1DE0
:10DC9000186070472DE9F0478046894614461D46B6
:10DCA0002046E11704EB9171C1F3870AE11704EBF9
:10DCB00091718910A4EB8101CFB2042000EBC70061
:10DCC000C7B22846FFF7D4FFC5F1040008FA00F6F2
:10DCD0000F20284100EA0900064306F00F06202C19
:10DCE00009DA384801680120A04001434FF0E020E4
:10DCF000C0F800110BE03348001D0068A4F12001BA
:10DD000001228A4010434FF0E021C1F804012E485F
:10DD100010F80A0006FA07F10843C1B22A4800F8D1
:10DD20000A10BDE8F08770B504460B46CE1701EB2C
:10DD30009676C6F38700CE1701EB9676B610A1EB68
:10DD40008606B606350E214B9B6943F001031F4E34
:10DD5000B3614FEAB63353F820300F26AE40B343D9
:10DD60001B4E46F82030334653F8203004FA05F6AF
:10DD70001E43174B43F82060164B1B6801268E404C
:10DD80003343144E336002F0010343B1114B0C33A3
:10DD90001B6801268E4033430E4E0C36336002F072
:10DDA000020343B10B4B08331E6801238B401E4313
:10DDB000084B08331E6070BD80FFFF1F08ED00E0B8
:10DDC0000000FA0500E100E000E400E0001002407D
:10DDD000080001400004014010B500F09BF9482004
:10DDE00000F07CF8FFF7A3F9FEF787FEFFF74CFB86
:10DDF00010BD0146354800884AF6552290422CD184
:10DE00003248801C0068401C38B33048801C0068D1
:10DE100018B32E48801C0068B0F1443F1DD02B4839
:10DE2000801C0068B0F1883F17D02848801C00682B
:10DE3000274A904211D02548801C00689206D2F8EB
:10DE40008623D243904208D12048801C0068884233
:10DE50000AD01E48801C006870471E48006888422F
:10DE600002D01C480068F7E70020F5E71748008853
:10DE70004AF65521884228D11448801C0068401C6D
:10DE800018B31248801C0068F8B11048801C006864
:10DE9000B0F1443F19D00D48801C0068B0F1883FB4
:10DEA00013D00A48801C0068094988420DD00748F1
:10DEB000801C00688906D1F88613C943884204D1C2
:10DEC0000248801C006804494860704780030008CD
:10DED00042455354F0F7FF1F2C0F00204FF0E02174
:10DEE000096921F004014FF0E02211614FF47A71C9
:10DEF0004143C90851610021916103211161002151
:10DF00000F4A116070470E48006870470C4800685F
:10DF10000C49086070470B480068704710B5084806
:10DF200000680949B0FBF1F201FB120004490860E6
:10DF300008460068401C086001F0EBFE10BD0000C0
:10DF400034000020380000200084D71710B50822C4
:10DF500080210020FEF772FD80210020FEF79CFD4D
:10DF600080210020FEF7B1FDB0B90A2000F04AFE82
:10DF700080210020FEF7A9FD70B94FF05A30094901
:10DF800008604FF41651482000F010F8064800F0E1
:10DF900010FEFFF7BBF910BD00200249086000BF6A
:10DFA000F9E700003C00002063E0000870B505467A
:10DFB0000C463E48C06840F480403C49C860084672
:10DFC000C06820F48040C8600846806940F00400C2
:10DFD00088610846806940F4804088613448006860
:10DFE00020F47F60324908600846006840F40B6006
:10DFF000086030486843B0FBF4F02F490880081DE2
:10E00000008842F20C0108432B49091D088008468C
:10E01000008840F4807008800846008840F02000A6
:10E0200008800223252203210846FFF733FE70BD36
:10E030000246002100E0491C1F480838008800F013
:10E04000400018B944F620608142F4D344F62060C1
:10E05000814204D21848001F02800120704700202E
:10E06000FCE770B504460D46164609E014F8010BAE
:10E07000FFF7DEFF20B94FF416514820FFF796FF57
:10E080002800A5F10101CDB2F0D1012070BD10B57D
:10E0900009480838008800F0200030B10648001F09
:10E0A0000088C1B2054800F0A4FE10BD0010024077
:10E0B0000408014040420F0008380140A802002037
:10E0C0004AF6AA2012490860704770B505460C460A
:10E0D00045F255500E4908600846456084604AF68E
:10E0E000AA2008604CF6CC400860AFF22B034FF436
:10E0F00048720021022001F003FD70BD10B5AFF29F
:10E100003F0001F06FFD10BD014612207047000076
:10E1100000300040024800B9704700BFFCE7000033
:10E12000DE2E010801F092FCFFF756FE4FF4FA6173
:10E130000520FFF7CAFF00F018FDFEF7A1FEFEF76D
:10E140005DFBFFF703FF00F00FF805E0034904480B
:10E1500000F006FC01F0ABFDF8E70000C80A002063
:10E16000A80200200220704710B502240A490220AC
:10E1700002F04CF90DE0601EC0B20446074901EB05
:10E180000010006828B1084600EB04100168204622
:10E190008847002CEFD110BDF8000020F82E0108B0
:10E1A00030B503460C46082A01D0002030BD0021BE
:10E1B00007E0585C655CA84201D00020F6E7481CE7
:10E1C000C1B29142F5DB0120F0E710B5B8484068D4
:10E1D000401CB74948600846406801280DD9012015
:10E1E00008720220486008460078487000200870D5
:10E1F000AFF2290001F0F6FC02E00020AC49087201
:10E2000010BD002004E00022AA490A54411CC8B2F3
:10E21000C828F8DB0021A74A921E51701170704780
:10E220000246002100E0491CA348008800F040009D
:10E2300018B94EF660208142F5D34EF66020814237
:10E2400004D29D48001D0280012070470020FCE799
:10E2500010B503460C4606E013F8010BFFF7E0FF8C
:10E2600008B9002010BD2000A4F101018CB2F3D147
:10E270000120F7E710B591480078401C8F490870DD
:10E280000846007828280BDD00208A49891E81F87D
:10E29000CA008A490870AFF2230001F0A3FC10BD48
:10E2A000834890F8D10001282AD18148007A0128BA
:10E2B00026D17F4840787F49891E0870002406E0F7
:10E2C0007B480930015D7B480155601CC4B2794828
:10E2D000801E0078A042F3DC7648801E0278811C04
:10E2E0007748FFF75DFF012805D10C217548FFF73E
:10E2F000AFFFFFF786FF00206D4981F8D10008725B
:10E3000000BFCCE700206A4948600872704770B5CA
:10E3100005460C466C48006940F400306A490861C3
:10E320000846006920F4003008610846C06940F4DE
:10E330000030C8610B2204210020FEF77FFB082279
:10E3400011460020FEF77AFB604868432178491E99
:10E350005F4A52F82110B0FBF1F0574908310880AC
:10E360006078012808D0022814D1081D008840F4E4
:10E370000070091D08800EE04F480C30008840F402
:10E3800080604D490C3108800846008840F4805078
:10E39000088000E000BF00BFA078082817D160788F
:10E3A000012802D06078022808D143480C30008848
:10E3B00040F4805040490C31088007E03E480C3062
:10E3C000008820F480503C490C31088000E000BFF8
:10E3D00000BFE07801281AD002280AD003281FD1F4
:10E3E00035481030008840F44050334910310880DF
:10E3F00017E031481030008840F400502E491031A9
:10E4000008800846008820F48050088009E02A48E7
:10E410001030008820F4405027491031088000E077
:10E4200000BF00BF24480C30008842F20C010843B2
:10E4300021490C3108800846008840F020000880FF
:10E440000223262219461846FFF724FC70BD10B59A
:10E45000FFF758FFAFF2E31001F0C4FBAFF2EB138C
:10E4600064220021022001F04BFBAFF2A12001F059
:10E47000B9FBAFF2A92305220021022001F040FBE5
:10E4800001200B4981F8D1000B48008800F02000E2
:10E4900038B10948001D0088C1B20548027809302A
:10E4A000815403480078401C0149087010BD0000E9
:10E4B00008010020DE01002000440040850000200B
:10E4C00070000020790000200010024040420F0040
:10E4D0004000002010B5044622460421080302F043
:10E4E00026FA10BD10B5044604202070002060708C
:10E4F0000820A0700120E0702046FFF7EBFF10BD60
:10E50000014608780D2801DA087808B9002070471C
:10E51000487820B1012803D0022803D101E000BFD0
:10E5200000BF01E00020F2E700BF8878082800D192
:10E5300001E00020EBE700BFC878012804D00228E2
:10E5400003D0032803D101E000BF00BF01E0002099
:10E55000DDE700BF0120DAE710B5044622460421BA
:10E56000080302F0FBF910BD08B56846FFF7F4FF99
:10E570006846FFF7C5FF10B96846FFF7B3FF694665
:10E580002420FFF7C4FE0A2153A0FFF761FE08BD57
:10E59000F8B504460D4605F0010504F0070005FA3C
:10E5A00000F0C5B204F0070101208840C6B24FF464
:10E5B000814101EBE4006A46012102F0CFF99DF8A8
:10E5C00000003040A84211D025B99DF80000B043AA
:10E5D000009003E09DF80000304300904FF481412B
:10E5E00001EBE4006A46012102F0A1F9F8BD38B55B
:10E5F00004464FF4814101EBE4006A46012102F038
:10E60000ADF904F00701012088409DF80010084092
:10E6100008B1012038BD0020FCE770B505460C4666
:10E620002846FFF7E4FF08B9002070BD290201F574
:10E63000824022464FF4807102F090F920785028F1
:10E6400004DC2078401C205C502805DD0021284691
:10E65000FFF79EFF0020E8E72178481C205C084473
:10E66000C0B2E2E700B5C1B01E490978090201F560
:10E67000824001AA4FF4807102F070F901A9194893
:10E680000078FFF7CAFF28B19DF804100DF10500CE
:10E69000FFF7DEFD41B000BD1FB5002000900190E6
:10E6A000029003906A4610214FF4814002F03FF936
:10E6B0001FBD70B505460C4623785A1CA25C1A444F
:10E6C000911C2A0202F58240224602F030F9012113
:10E6D0002846FFF75DFF70BD3132333435363738A9
:10E6E000393000008600002010B5FEF70AFC10BD8E
:10E6F00010B50446FFF738FF4C4B6422002102207E
:10E7000001F0FEF9FEF72BFC10BD30B5C1B0054697
:10E710004FF48071684604F07BF8002440A8FFF7AE
:10E72000E1FEFFF76EFD6A4620214FF4814002F0C2
:10E73000FEF800BF05E000212046FFF729FF601C1E
:10E74000C4B2FF2CF7DB41B030BD10B50446E01C6D
:10E75000FFF7D6FE08B90E2010BDE01CFFF7BAFE89
:10E76000334B0A220021084601F0CAF90120F3E7E1
:10E7700070B506460C461546042020702846FFF763
:10E78000EBFE012070BD10B50446207920B9E07879
:10E790000021FFF7FDFE03E0E078611DFFF789FF30
:10E7A000012010BD70B504460D461646E07831468E
:10E7B000FFF733FF2870012070BD10B50446E078E4
:10E7C000FFF715FF50B1E0781A4908701A4B642220
:10E7D0000021084601F094F9012010BD1220FCE749
:10E7E00070B505460C4616460020144981F8D10044
:10E7F0000E4B64220021022001F082F9A978E81C66
:10E80000FFF726FD0E48007828B90120207030203F
:10E810000B49887002E00A48007820702278084985
:10E82000891C304600F039F8012070BD75E20008FF
:10E8300069E500088600002065E600080801002060
:10E84000DC01002030B5884209D003460C4604E0C4
:10E8500014F8015B03F8015B521E002AF8D130BDA9
:10E86000F0B503468B420DD01D460C4608E015F866
:10E87000016B14F8017BBE4201D00120F0BD521E95
:10E88000002AF4D10020F9E710B5034602E003F8AE
:10E89000011B521E002AFAD110BD70B588420AD25F
:10E8A00003460C4604E014F8015B03F8015B521EBA
:10E8B000002AF8D10DE088420BD983188C1806E0A5
:10E8C000651E2C462E785D1E2B462E70521E002A89
:10E8D000F6D170BDF0B505460C4616462F463146BA
:10E8E00014E011F801CB387884450DD1012200E005
:10E8F000521CA24204D211F801CBB85C8445F7D077
:10E90000A24201D1881AF0BD5B1E491C002BE8D140
:10E910000020F8E770B5044600260E702546104624
:10E920000AE010F8016B05F8016B0E78761C0E708A
:10E93000067806B970BD5B1E002BF2D100260E7062
:10E9400000BFF7E70146B1F1883F01D102207047CF
:10E950009A480068884201D10320F8E70020F6E7D2
:10E9600070B505460C46607810B1012826D115E037
:10E970002946601D02F00CF8C0B2207000B922E0F8
:10E98000A078012802D18E48007A00E00120E070D2
:10E99000D4F81100FFF7D6FF207100BF227921784B
:10E9A000601DD4F80431984720B1E078401EC0B211
:10E9B000E07010B10120607005E000BFFFF7A6FA1B
:10E9C0000020607000BF00BF70BD10B57D497E485B
:10E9D000FFF7C6FF10BD0146881E0C280FD2DFE8E6
:10E9E00000F0060E0E0A0E070E080E0B0E0C00BFEE
:10E9F00000BF0320704700BF00BF0620FAE700BF3A
:10EA000000BF0020F6E7F8B504460D2660786F4990
:10EA100001EB0010C56800200090FFF7A3FB6178B0
:10EA2000884252DD00BFA1782868884242D1207810
:10EA3000022808D02078042805D02078072802D0A2
:10EA40002078092820D1A868E0B16078604901EBFE
:10EA5000C000807918B9092603F030FC29E0601C59
:10EA6000A96888470646022E23D12868CF2800D9F6
:10EA70000126E07800909DF80020211D601DFFF721
:10EA80000CFF16E00A2614E02078052805D020782F
:10EA90000B2802D020780D280AD1E86830B1621D19
:10EAA0006946601CEB689847064602E00B2600E0CA
:10EAB0000C2609E005F1100029680546006881422E
:10EAC00002D22868FF28AED900BF9DF80000401C84
:10EAD000E07026713046F8BD2DE9F84307468846B8
:10EAE00014461E4604F11103621C41463846009646
:10EAF00002F0D3FE0546012825D104F11100FFF7ED
:10EB000082FF0546032D1ED0FEF7D0F9607C022857
:10EB100012D0607C05280FD0607C072802D0607C72
:10EB20000B2801D1012D07D0607C092802D0607C20
:10EB30000D2808D1012D06D0607CFFF74CFF6074D2
:10EB4000204602F0E7FCBDE8F8832DE9F0410446D9
:10EB50000D461746A61D04F11B03324629462046E2
:10EB6000FFF7BAFF0120BDE8F08110B54FF48062D5
:10EB70001849194800F07CF84FF480621749124890
:10EB800000F076F80020164948708870AFF2450012
:10EB9000C1F8040100200B49487001208870114819
:10EBA000C1F80401104B03220021022000F0A8FF4D
:10EBB00010BD0449C1F80401704700008C0000201A
:10EBC0002C0F0020D00B0020B8020020F82E0108E6
:10EBD000F8000020C8020020A8020020C80600207B
:10EBE000C80A0020D7DA0008CBE90008014604E093
:10EBF0000A2000E0401E0028FCD10A00A1F101011A
:10EC0000F6D1704710B5044605E0FFF759FA40F217
:10EC1000E630FFF7EBFF2000A4F10104F5D110BDB1
:10EC200070B506460C46154626B1012E09D0022EB7
:10EC300012D109E0022003F02DFB0C4800F0D2FFB6
:10EC40000BE0FFF75BFA08E02DB12B46052200210F
:10EC5000084600F055FF00E000BF00BF24B1012CC2
:10EC600002D0204601F0ABFB70BD0000A1CF000830
:10EC7000034600BF0BB90020704700BF19605A60FF
:10EC80000020D86098600120F6E700BF00B9704707
:10EC900000BF00218160C16000BFF8E70146D1E9F3
:10ECA0000202904201D1012070470020FCE701469A
:10ECB000C868401C4A68B0FBF2F302FB13008A6884
:10ECC000904201D1012070470020FCE70146D1E9C4
:10ECD0000202904204D9D1E90202801A401E704714
:10ECE000D1E901021044CA68801A401EF7E70146C4
:10ECF000D1E90220904205D24A68C86810448A6867
:10ED0000801A7047D1E90220801AFAE72DE9F04114
:10ED100004460F46154600BF14B90020BDE8F08137
:10ED200000BF00BF2046FFF7D1FFA84201D200205C
:10ED3000F4E700BFE1686068401AA84203D2E168C6
:10ED40006068401A00E028460646E2682168881894
:10ED500032463946FFF776FDAA1BB9192068FFF73E
:10ED600071FDE06828446168B0FBF1F201FB12001C
:10ED7000E0600120D2E72DE9F04104460E46154639
:10ED800000BF14B90020BDE8F08100BF00BF2046DD
:10ED9000FFF784FF012801D10020F4E700BF00BF86
:10EDA0002046FFF7A4FFA84201D20020EBE700BFF6
:10EDB000D4E90101401AA84203D2D4E90101401A62
:10EDC00000E028460746A268206881183A46304687
:10EDD000FFF738FDEA1BF0192168FFF733FDA06843
:10EDE00028446168B0FBF1F201FB1200A060012031
:10EDF000C9E770B504460D4600BF0CB9002070BDD0
:10EE000000BF00BF2046FFF752FF012801D10020BC
:10EE1000F5E700BFE16820684554E068401C616880
:10EE2000B0FBF1F201FB1200E0600120E7E710B552
:10EE300003460C4600BF0BB9002010BD00BF00BF49
:10EE40001846FFF72BFF012801D10020F5E700BF8E
:10EE500099681868405C20709868401C5968B0FB3D
:10EE6000F1F201FB120098600120E6E7F0B50346DD
:10EE70000C46154600BF0BB104B10DB90020F0BD22
:10EE800000BF9968002212E01868405CA65CB0429E
:10EE900005D1501C0246A84202D1521E0AE00022AF
:10EEA000481C5E68B0FBF6F706FB17000146D86801
:10EEB0008842E9D100BF58680844801A5E68B0FBF8
:10EEC000F6F706FB1700DAE7F0B504460D4600BF7B
:10EED000206800B10AB90020F0BD00BF00210EE09B
:10EEE00068186668B0FBF6F706FB17002668365C04
:10EEF00012F8017BBE4201D00020EDE7491C994287
:10EF0000EED30120E8E7000010B50446624800781F
:10EF100008B1122010BD01205F490870D4F8030029
:10EF20005E490860072000594860E07A0872217B3A
:10EF30005A4841720D20015B58484181584B4FF4AB
:10EF40007A720021084600F0DBFD0120E2E7534819
:10EF5000006870475148007A704703460D200870DA
:10EF60004E48006810604D48406850604B48007A39
:10EF700010724A48407A5072484840895081464849
:10EF8000007810730120704770B504460025424890
:10EF90000078012801D0122070BD02203E4908707F
:10EFA000D4F803003D490860072000594860E07A22
:10EFB0000872217B394841720D20015B374841813D
:10EFC0000120FEF721F9374B41F288320021084633
:10EFD00000F096FDFEF71FF905463048007A421C06
:10EFE00000212846FFF750FC0120D5E703460D20FD
:10EFF00008702A4800681060284840685060274818
:10F00000007A10722548407A507224484089508115
:10F010002148007810730120704710B50446214B39
:10F0200041F288320021084600F06AFDE078FF28AE
:10F0300012D11948007802280ED11A4800F0D2FDEA
:10F0400003F093F8184B4FF47A720021084600F051
:10F0500057FD002010490870012010BD70B506460C
:10F060000C46154601202070FEF7D7F828700120C5
:10F0700070BD10B504460020074908700B4800F029
:10F08000B1FD012010BD0346012008700248007840
:10F090001070012070470000910000201C1100201A
:10F0A0004F2101086B210108752101080121010888
:10F0B00010B5002003F0EEF810BD10B5044601F0C5
:10F0C00050F903F019F901F05FFF01F011FF002280
:10F0D00007210220FFF7A4FDAFF22B034FF47A7251
:10F0E0000021084600F00CFD10BD70B5044600205C
:10F0F000087042F290700D7850530878801C0870A8
:10F10000F74800680D7850510878001D0870F448E1
:10F11000001D00680D7850510878001D08704FF0F0
:10F120000060D0F800030D7850510878001D087079
:10F13000EB4BF43B05E01D780E78701C087095557C
:10F140005B1C18785A2802DC18783028F3DA012082
:10F1500070BD10B50346987860B1E148001F0068A3
:10F16000B3F80340A04205D0B3F803004FF6FF7494
:10F17000A04212D100200870D948001F00880C78E6
:10F1800010530878801C0870D54800680C7810511E
:10F190000878001D0870012010BD1220FCE710B592
:10F1A0000446A078042801DCA07808B90F2010BD1F
:10F1B000D4F80300CB490860042001F01BF908B91A
:10F1C0001020F4E70120F2E70346C648006810600B
:10F1D00004200870012070470346C2484068106050
:10F1E000042008700120704710B50446E078052817
:10F1F00001DCE07808B90F2010BDE078B949087249
:10F200000831012001F0F6F808B91020F4E70120D8
:10F21000F2E70346B348007A107001200870704787
:10F2200070B50546A878192806DCA878052190FB5A
:10F23000F1F201FB120008B10F2070BDA878052182
:10F2400090FBF1F0C6B200240EE004EB8401E81C50
:10F25000405C28B104EB8401E81C405C052801DD1A
:10F260000E20EAE7601CC4B2B442EEDB002410E0DA
:10F2700004EB8400401CE91C0A5804EB8401E81CE0
:10F28000405C401E97490A3101EB80000260601C1F
:10F29000C4B2B442ECDB93490A31142001F0AAF85D
:10F2A00008B91020C9E70120C7E7F0B503460C46AE
:10F2B0000025D878FF2827D100202070002120E0E9
:10F2C00088480A3000EB81000068C0B185480A30E8
:10F2D00000EB81000068401C88B1481C05EB8506E6
:10F2E000905580480A3000EB8100066805EB8507E1
:10F2F000501CC6512078401D2070681CC5B2481CA7
:10F30000C1B20529DCDB13E0D87810B1D878052824
:10F3100001DD0F20F0BDD8781070D878401E714EF6
:10F320000A3606EB80000068C2F801000520207054
:10F330000120EFE710B50446E07808B1012000E0B5
:10F340000020684988771E31012001F053F808B980
:10F35000102010BD0120FCE703466248807F012891
:10F3600000D100E00020107001200870704770B5D7
:10F370000446A078052801DCA07808B90F2070BDEC
:10F38000E078A8B901250EE05749606841F83500DA
:10F39000084600EBC501042001F04AF808B9102026
:10F3A000EDE7681CC5B2FEF7DDFEA842ECDC14E018
:10F3B000FEF7D8FEE178884201DC0E20DFE7E17835
:10F3C000494A606842F83100E07802EBC00104204D
:10F3D00001F02EF808B91020D1E70120CFE72DE980
:10F3E000F04104460D461646A078032801DCA078BB
:10F3F00010B90F20BDE8F081E07890B90127002016
:10F40000287009E0384850F837002978705028787B
:10F41000001D2870781CC7B2FEF7A4FEB842F1DCCC
:10F420000DE0FEF79FFEE178884201DC0E20E1E767
:10F43000E0782D4951F83000306004202870012018
:10F44000D8E770B50446A078032801DCA07808B995
:10F450000F2070BDE078B8B9012510E0A0882249DE
:10F4600001EBC5018880204800EBC500011D02208A
:10F4700000F0DEFF08B91020EBE7681CC5B2FEF70C
:10F4800071FEA842EADC16E0FEF76CFEE1788842E5
:10F4900001DC0E20DDE7A088E178134A02EBC10110
:10F4A0008880E07802EBC000011D022000F0C0FF60
:10F4B00008B91020CDE70120CBE72DE9F041044643
:10F4C0000D461646A078032801DCA07810B90F205D
:10F4D000BDE8F081E078C8B901270020287010E06D
:10F4E000040400082C0F0020F8000020FE4800EB68
:10F4F000C7008088297870522878801C2870781C72
:10F50000C7B2FEF72FFEB842F0DC0EE0FEF72AFE8F
:10F51000E178884201DC0E20DAE7E078F24901EB7D
:10F52000C00080883080022028700120D0E770B5AC
:10F530000446A078022801DCA07808B90F2070BD2D
:10F54000E078B8B9012510E02079E74901EBC50161
:10F55000C871E54800EBC500C11D012000F068FF3F
:10F5600008B91020EBE7681CC5B2FEF7FBFDA84206
:10F57000EADC16E0FEF7F6FDE178884201DC0E20B9
:10F58000DDE72079E178D84A02EBC101C871E07863
:10F5900002EBC000C11D012000F04AFF08B9102095
:10F5A000CDE70120CBE72DE9F04104460D46164694
:10F5B000A078022801DCA07810B90F20BDE8F08106
:10F5C000E07898B90127002028700AE0C64800EBCF
:10F5D000C700C079297870542878401C2870781C9E
:10F5E000C7B2FEF7BFFDB842F0DC0EE0FEF7BAFD91
:10F5F000E178884201DC0E20E0E7E078BA4901EBCF
:10F60000C000C0793070012028700120D6E770B5A5
:10F610000446A078052801DCA07808B90F2070BD49
:10F62000E078B8B9012510E02079AF4901EBC501B8
:10F630008871AD4800EBC500811D012000F0F8FE87
:10F6400008B91020EBE7681CC5B2FEF78BFDA84295
:10F65000EADC16E0FEF786FDE178884201DC0E2048
:10F66000DDE72079E178A04A02EBC1018871E078FA
:10F6700002EBC000811D012000F0DAFE08B9102065
:10F68000CDE70120CBE72DE9F04104460D461646B3
:10F69000A078032802DD0F20BDE8F081E07808B1F2
:10F6A000A07898B90127002028700AE08E4800EB66
:10F6B000C7008079297870542878401C2870781CFD
:10F6C000C7B2FEF74FFDB842F0DC0EE0FEF74AFD90
:10F6D000E178884201DC0E20DEE7E078824901EB28
:10F6E000C00080793070012028700120D4E72DE916
:10F6F000F04104460D461746E178207901EB0020E1
:10F7000086B26079822802DD0E20BDE8F081B6F570
:10F71000004F01DB1120F8E760793044B0F5004F6D
:10F7200002DD7042287001E06079287029783A463D
:10F73000304601F01BFA08B91020E6E70120E4E7A3
:10F7400010B50446A07810B900F004FE08E0A078D7
:10F75000052805D1E1788800221D042101F042FA34
:10F76000012010BD70B506460C46154629462046B8
:10F7700000F035FE012070BD10B50446A0780128C8
:10F7800001DD0F2010BDA078012805D1E07818B95F
:10F79000022000F0C4FD1CE0A07818B9012000F0A0
:10F7A000BEFD16E0FEF7DEFCE17888420FDDE07872
:10F7B00000F06CFDE07800F04EFDE07800F023FDF5
:10F7C000E07800F086FFE07801F03CFE01E00E20DA
:10F7D000D8E70120D6E770B50446A07808B90F2015
:10F7E00070BDE078022804D003280ED005281FD170
:10F7F00014E02079611D01F08DFD0546012D02D137
:10F80000A0700220ECE72846EAE76179207901F050
:10F8100002FE012800D1E3E71520E1E761792079B4
:10F82000A21D01F0A6FD012800D1D9E71620D7E7D7
:10F8300000BF00BF0E20D3E770B504460D46164644
:10F84000E078012802D0042814D109E061792079F8
:10F8500033462A4601F0ABFD012800D170BD0AE015
:10F860006179207933462A4601F0B9FD08B10120BB
:10F87000F4E700E000BF00BF1520EFE710B5044635
:10F88000A07808B90F2010BDE07818B9012001F068
:10F8900003FD05E0E07801F0D5FD08B91720F2E797
:10F8A0000120F0E770B506460D4614460F48008863
:10F8B0004AF6552188422DD10C48801C0068401C16
:10F8C00040B30A48801C006820B30848801C0068C8
:10F8D000B0F1443F1ED00548801C0068B0F1883F5D
:10F8E00018D00248801C03E0F800002080030008C4
:10F8F0000068504988420DD04F4800688906D1F809
:10F900008613C943884205D14FF00060D0F88203C6
:10F91000206002E04FF0FF302060201DFDF779F8F5
:10F9200010202870012070BD10B586B00446142147
:10F9300001A802F06DFF4FF0FF300090A07808287A
:10F9400002DA0F2006B010BD3B48801E00884AF640
:10F950005521884227D138480068401C18B33648E2
:10F96000006800B334480068B0F1443F1BD032480F
:10F970000068B0F1883F16D02F4800682D498842B2
:10F9800011D02D4800688906D1F88613C9438842F2
:10F9900009D14FF00060D0F88203D4F803108842F8
:10F9A00009D10120CEE7254801680720005981428E
:10F9B00001D00E20C6E72248049054F8030F2149D5
:10F9C000896841F001011F4A91601C4908390968A2
:10F9D00011601A49091F0968116018490968116006
:10F9E00011460860096805914AF65520ADF80400F3
:10F9F0002068CDF8060054F80309C043CDF80A008A
:10FA000001AA14210C48801EFDF718FB80B1D4F820
:10FA1000030000906A460421442001F0E3F80A4BF9
:10FA20004FF47A720021084600F06AF8012089E755
:10FA3000022087E74245535482030008F0F7FF1F76
:10FA4000A542BD5A003002406DDE00080020C849C2
:10FA50000860704730B503460C4619460AE0084670
:10FA6000491CC34D2D1D05EB0010C068904201D10B
:10FA7000C8B230BDA142F2D30020FAE77FB50546F7
:10FA8000BB4A1288BA4B5B88D118B94A10882A46FB
:10FA9000FFF7E0FF044694B3B5480088201A012818
:10FAA00024D9601EB24A121D02EB001110226846D2
:10FAB000FEF7C8FEAE4B1B88E31A1A01AC4B1E883A
:10FAC0001B1D03EB06111B1F1B885B1CA84E361D5C
:10FAD00006EB0310FEF7E1FE311F0A88091D01EB5A
:10FAE000021010226946FEF7ADFE00BFA048008854
:10FAF000401C9F49088008464088401E48807FBDC2
:10FB00002DE9F0410746884615461E4600BF984835
:10FB10000088974949880844142802DB0020BDE882
:10FB2000F08100BF92480088914A5288811832467D
:10FB30000020FFF78FFF00BB8D4B5B881A018C4BB9
:10FB4000B3F800C01B1D03EB0C111B1F1B885B1CB3
:10FB5000DFF81CC20CF1040C0CEB0310FEF79DFE49
:10FB6000834804880088401C81490880002180481F
:10FB7000001D00EB041001700CE03046FFF77EFF23
:10FB80007B4800887A4A5288811832460020FFF765
:10FB900061FF441E7648001D00EB04104770744856
:10FBA000001D00EB0410C6604FB905B96D1C4FF085
:10FBB000010800216E48001D00EB041001706C4824
:10FBC000001D00EB0410A0F802806948001D00EB46
:10FBD0000410456000216648001D00EB04108160A0
:10FBE00001209CE770B5054661480088604A52884C
:10FBF00081182A460020FFF72DFF044604B35C4B12
:10FC00001B885B4E768833441B1B1A01584B1B1D07
:10FC100003EB0411631E564E361D06EB0310FEF770
:10FC20003CFE301F0088A04205D2301F4088401E95
:10FC3000311F488004E04E480088401E4C4908802F
:10FC400070BD7FB505464A4801882A460020FFF767
:10FC500001FF044654B3601E454A121D02EB001119
:10FC600010226846FEF7EEFD414B1B881B1B1A0154
:10FC70003F4B1B1D03EB0411631E3D4E361D06EB6F
:10FC80000310FEF70AFE311F0988491E8AB2311F90
:10FC90000A80091D01EB021010226946FEF7D2FD11
:10FCA000301F4088401C311F488000BF7FBD70B5A9
:10FCB0002F4C241D25E0207810B3E568002020702B
:10FCC000607830B1012807D002280ED0032814D163
:10FCD0000DE00120207000BF6188481E608019B9C6
:10FCE0002846FFF77FFF09E000BFA84706E0A847C6
:10FCF00010B92846FFF776FF00E000BF00BF00BF45
:10FD000010341B480188001D00EB0110A042D2D81E
:10FD100070BD1748001D0AE08168491C8160426877
:10FD2000914203D3002181600121017010301049FC
:10FD30000A88091D01EB02118142EDD8704770B5A8
:10FD400004460B4800880A4A52888118224600203F
:10FD5000FFF780FE05460DB9002070BD04480088FD
:10FD6000801CA84201DD0120F7E70220F5E7000032
:10FD7000D80C0020F0B585B00446A07800282ADD14
:10FD8000A778E51C21E0A878102802DD0F2005B037
:10FD9000F0BD02208DF80000A878C21C29460DF1A4
:10FDA0000100FEF74FFD6846FEF72DFE0646012EC8
:10FDB00008D0BDF80100A4F8030066710320A0700C
:10FDC0000220E4E7A878C01C0544E01C3844A8429F
:10FDD000D9D80120DBE70F20D9E72DE9F043C1B0E6
:10FDE00080460C4616460020207098F80200002835
:10FDF00041DD98F8029001A800EB090501AF4A46E1
:10FE000008F103013846FEF71DFD2EE0052028709D
:10FE100017F8010B687017F8010BA8700020E87044
:10FE20002846FEF7F0FD01281FD169782278501C82
:10FE30002070B154A9782278501C2070B154E87811
:10FE4000401EC1B2E9702278501C2070B154EA788B
:10FE500021788819691DFEF7F5FC2078E9780844B7
:10FE6000207020785A2800DD03E001A84844B842F9
:10FE7000CCD800BF48E0FEF775F907463EE04048A1
:10FE800000EB0710C56800BF287901282BD18DF839
:10FE9000007128788DF8010100208DF80201E868D2
:10FEA00008B32078C01C82190DF2031140A8EB683A
:10FEB0009847012817D12178481C20707754297859
:10FEC0002278501C2070B1549DF803112278501CE8
:10FED0002070B15420789DF80311084420702078D8
:10FEE0005A2800DD09E005F1100029680546006880
:10FEF000814202D22868FF28C6D900BF3800A7F186
:10FF00000101CFB2BBD100BF012041B0BDE8F083F9
:10FF100070B50446FEF726F90546A078012801D001
:10FF20000F2070BDE078A84201D30E20F9E7E078F9
:10FF300088B9FEF717F905460AE06D1E104800EB78
:10FF40000510806820B10E4901EB051188688047D3
:10FF5000002DF2D10BE0E078094901EB0010806838
:10FF600028B1E178064A02EB011188688047054B09
:10FF70003222C8210120FFF7C3FD0120D1E7000094
:10FF8000F82E0108A1CF000803460868984202D85D
:10FF90001068984201D2002070470120FCE72DE94B
:10FFA000F04106460D4606F0030010B10020BDE802
:10FFB000F08180480088402808D0802809D0B0F51A
:10FFC000807F09D0B0F5007F0CD108E04FF4F844F1
:10FFD0000AE04FF43C4407E04FF4C83404E04FF427
:10FFE000483401E0002400BF00BFE8687043A0422D
:10FFF00001D90020DBE77048067070492868086066
:020000040801F1
:1000000068684860A8688860E868C860002705E0FC
:1000100000206B4941F82700781CC7B2402FF7D366
:10002000664988682146FCF7C1FFC0E72DE9F04129
:1000300004460D4617466148C068A04201D3C82D4A
:1000400001DDBDE8F08160095D4951F8200004F050
:100050001F02012191400840F0B958488068564974
:10006000097804FB01063A4629463046FCF7B8FFFA
:1000700068B16009524951F8200004F01F020121C3
:100080009140084361094E4A42F8210004E04D487E
:100090000078401C4B49087000BFD2E730B50246DB
:1000A0000B4600210020107013E04809444C54F81E
:1000B000200001F01F050124AC40204040B923F886
:1000C000021B1078801C10701078642800DD04E09A
:1000D000491C3A48C0688842E7D800BF107808B980
:1000E000012030BD0020FCE770B505460C46A9B2E2
:1000F000324A906800F002FD201A84B20CB9012047
:1001000070BD0020FCE738B5054600952E4C0BE08D
:10011000FDF746F82168884205D16A460421204649
:10012000FCF75EFF38BD241DB4F1082FF0D3234A3D
:10013000102125482038FCF769FF4FF480612248E0
:100140002038FCF733FF1D4A10211F482038FCF7E8
:1001500047FF2846FFF7D7FFE4E710B51A4C0FE03A
:10016000FDF71EF82168884209D1241F206849281C
:1001700002D320685D2800D905E0207810BD241D39
:10018000B4F1082FECD300BF5320F7E770B5044655
:10019000FFF7E3FF05464FF480612046FCF706FFBA
:1001A000064A10212046FCF71BFF2846FFF7ABFF4D
:1001B00070BD0000E0F7FF1F870000201C0E00202C
:1001C0002C0E0020880000202004000810B500221A
:1001D00020214FF43F6000F041FD10BD10B5012417
:1001E0000AE004EB8401090101F58060002250213E
:1001F00000F034FD601CC4B2FDF7B4FFA042F0DC97
:10020000FFF7E4FF10BD2DE9F05F8246504602F093
:1002100058FC80460022F94B02F066FC064600229C
:100220004FF0814302F078FB044602F01DFC834648
:1002300000220A2100F012FDBDE8F09F10B5012454
:1002400004E02046FFF7DFFF601CC4B2FDF78AFF21
:10025000A042F6DC10BD10B50446E94800EB0410DE
:10026000406828B1E64800EB041041682046884702
:1002700010BD10B5002404E02046FFF7ECFF601C21
:10028000C4B2FDF76FFFA042F6DC10BD10B5044606
:100290004FF0FF30DB4941F83400002001EBC4018E
:1002A00088800120D74901EBC40188710020D5491D
:1002B00001EBC401C871D34901EBC402210101F172
:1002C0008000082100F08EFC10BD10B5002404E071
:1002D0002046FFF7DBFF601CC4B2FDF743FFA042DE
:1002E000F6DC10BD10B54FF0FF30C74908600020A4
:1002F000FDF77FFDC4494860022008720020487263
:1003000014220021C0480A30FEF7BEFA0020BE4980
:1003100088770A461F21402000F064FC10BD38B5E4
:100320000446BAA000680090FFF7DCFFFFF7CDFF9E
:10033000FFF79FFFFFF782FFFFF750FF012000F05C
:10034000ABFF022C02D1684600F092FD012001F0C3
:10035000A1FF38BD10B500224021104600F07EFC00
:1003600010BD10B5A84A1F21402000F0FFFBA64990
:100370004868FDF73EFDC0B1AFF2190332220021FB
:100380000846FFF7BDFBA2480078401CC0B2A04958
:100390000870032812DDAFF23500FFF723FCFFF7EA
:1003A000D9FF0120FFF7BBFF08E09948007800283B
:1003B00004DD002096490870FDF7D6FE10BD38B563
:1003C0000446A0006A46042100F0D0FB0098401CBF
:1003D0000090A0006A46042100F004FC38BD70B50E
:1003E00004460D464020207021782A46002000F067
:1003F000BDFB70BD70B505460C468349611A01F11D
:1004000040002246294600F0EDFB70BD70B5044661
:100410000D4607E005EBC402210101F1800008212F
:1004200000F0A4FB2000A4F10101CCB2F2D170BD18
:1004300070B505460C467348261AF108090180314B
:1004400006F0070288182246294600F0CBFB70BD53
:100450002DE9F74F86B089461446484602F031FB35
:10046000054600224FF0804302F03EFB82468B4659
:10047000069802F026FB07460022604B02F034FB90
:10048000054600224FF0814302F046FA52465B4691
:10049000CDE9000102F040FACDE9020102F0E4FAF0
:1004A00005AA0221049000F061FB102C0CDA012057
:1004B000A040BDF81410084030B10120A040BDF8A4
:1004C00014108143059107E0FF2C02D10020059014
:1004D00002E009B0BDE8F08F484602F0F2FA0546A6
:1004E00000224FF0804302F0FFFA82468B460698C6
:1004F00002F0E7FA07460022404B02F0F5FA054603
:1005000000224FF0814302F007FA52465B46CDE9E4
:10051000000102F001FACDE9020102F0A5FA05AAF4
:100520000221049000F05EFB00BFD2E72DE9F74FF7
:1005300086B089461446484602F0C3FA05460022B2
:100540004FF0804302F0D0FA82468B46069802F0C4
:10055000B8FA07460022294B02F0C6FA05460022E7
:100560004FF0814302F0D8F952465B46CDE90001D5
:1005700002F0D2F9CDE9020102F076FA05AA0221D1
:10058000049000F0F3FA102C34DA0120A040BDF8FA
:100590001410084070BB0120A040BDF8141008439F
:1005A00080B20590484602F08CFA054600224FF0D2
:1005B000804302F099FA82468B46069802F081FA4F
:1005C000074600220D4B02F08FFA054600224FF03D
:1005D000814302F0A1F952465B46CDE9000102F0E9
:1005E0009BF9CDE9020102F03FFA05AA022104902D
:1005F00000F0F8FA09B0BDE8F08F000000002440D8
:10060000F82E0108F80000202C0F002000F80153FC
:10061000890000202DE9F74F86B00C469146204610
:1006200002F04FFA054600224FF0804302F05CFAD8
:10063000CDE90201069802F044FA07460022D34BA6
:1006400002F052FA054600224FF0814302F064F9AD
:10065000CDE90001DDE9022302F05EF9824602F0F5
:1006600003FA05AA0221049000F080FA012000FAA2
:1006700009F0BDF81410084018B1012009B0BDE818
:10068000F08F0020FAE738B504462546E11704EB61
:100690005171C91001F53F606A46012100F066FA08
:1006A0002046E11704EB5171C910A4EBC1020121EE
:1006B00091409DF800208A4300922546E11704EB03
:1006C0005171C91001F53F606A46012100F08AFAB4
:1006D00038BD30B595B0054605EB8501090101F53A
:1006E000806001AA502100F041FA002408E001A82E
:1006F000005D18B101A9085DFFF7C5FF601CC4B219
:10070000502CF4DB05EB8501090101F58060002226
:10071000502100F0A3FA15B030BDF8B504460D46DF
:10072000164604EB8401090101F58061102202FBE9
:100730000511012202FB06106A46012100F016FA9B
:100740009DF8000090B104EB8401090101F580617E
:10075000102202FB0511012202FB061000220121DA
:1007600000F07CFA9DF80000FFF78DFFF8BD014610
:100770004FF44060802902DA00EBC10014E000F57C
:100780008060A1F18002D1B2402902DA00EB0110B1
:100790000AE000F58060A1F14002D1B2402902DAFE
:1007A00000EB411000E000BF704770B505460C46F5
:1007B0002078411C2246284600F014FA70BD0146FC
:1007C000082901DA01207047102901DA8020FAE7B0
:1007D000202901DAC020F6E74FF48070F3E770B506
:1007E00088B006460D466A4620214FF43F6000F06F
:1007F000BDF93046FFF7E3FF04460020287023E0F0
:10080000684600EBD400007804F007020121914013
:100810000840C0B92C70684600EBD400007804F0A2
:100820000702012191400843694601EBD401087099
:10083000694601EBD4024FF43F6101EBD400012182
:1008400000F0D0F902E0641CFF2CD9D900BF08B039
:1008500070BD2DE9F84305460E4617461C4605EBCC
:100860008501090101F58061102202FB06110122B8
:1008700002FB07106A46012100F078F92078FFF7A3
:100880009EFF9DF80010884205D99DF80000FFF7F3
:10089000FAFE002000909DF80000C0B9207869465B
:1008A000FFF79DFF9DF8000010B91120BDE8F88307
:1008B00005EB8501090101F58061102202FB06119B
:1008C000012202FB07106A46012100F08BF99DF816
:1008D0000000FFF74CFF80462146FFF766FF01202E
:1008E000E4E72DE9F84305460E4617461C4605EB9E
:1008F0008501090101F58061102202FB0611012228
:1009000002FB07106A46012100F030F99DF8000053
:1009100048B19DF80000FFF72AFF804622462021BB
:1009200000F024F901E000202070BDE8F88370B5E4
:1009300004460D4616466019B0F5004F02D8B4F5CE
:10094000405F01D2112070BD32462946204600F09A
:1009500049F908B91020F6E70120F4E770B504461C
:100960000D4616466019B0F5004F02D8B4F5405F49
:1009700001D2112070BD32462946204600F0F6F81B
:1009800008B91020F6E70120F4E700000000244039
:100990002DE9F04106460C4600BF04B96AE000BFED
:1009A00000BF2046FEF77AF9012800D162E000BFBF
:1009B000062250492046FEF759FA0546A56000BFB9
:1009C0002046FEF76BF9012800D153E000BF1B253C
:1009D00000BF2046FEF78BF9A84200D24AE000BFD4
:1009E000A0682844401E6168B0FBF1F201FB1200D0
:1009F0002168085C0830054400BFFF2D00D930E0B5
:100A000000BF00BF2046FEF772F9A84200D231E0D5
:100A100000BF00BFA0682844801F6168B0FBF1F2EE
:100A200001FB12070623344A39462046FEF74CFAEA
:100A300000B916E000BF00BF2A4631462046FEF747
:100A40009AF900B916E000BF00BFA5F10C0081B211
:100A5000B01D00F053F800B10CE000BF2846BDE81F
:100A6000F081A068801D6168B0FBF1F201FB12000B
:100A7000A06000BF0020F2E72DE9F04105460E46D8
:100A8000174600BF05B933E000BF00BF0622194971
:100A90002846FEF73BF900B92AE000BFB9B230465C
:100AA00000F02CF8044600BF3A4631462846FEF7CF
:100AB0002DF900B91CE000BF00BF21122846FEF747
:100AC00098F900B914E000BF00BFE1B22846FEF774
:100AD00090F900B90CE000BF00BF06220649284685
:100AE000FEF714F900B903E000BF0120BDE8F08172
:100AF0000020FBE7883101088E31010870B50346FC
:100B00000C460025002600210DE0585C80EA050215
:100B1000154810F8120080EA0605134830F8120054
:100B20000612481C81B2A142EFDB46EA052070BDE7
:100B3000F0B504460D46002600271612D7B2002154
:100B40000DE0605C80EA0603074810F8130080EAB5
:100B50000706054830F813000712481C81B2A94265
:100B6000EFDB47EA0620F0BD943101082DE9F041A2
:100B700004460D46174628E0B4F5004F03D247F669
:100B80009C70854202D90020BDE8F08104F03F004E
:100B9000C0F14000A84204D204F03F00C0F1400080
:100BA00000E028460646F3B2A1B23A46A020FCF780
:100BB000D4F800B90BE03444AD1B37444FF0FF319B
:100BC000A020FCF7B6F800B901E0002DD4D100BF99
:100BD0000DB90120D8E7002211461046FEF720F893
:100BE0000020D1E72DE9F04104460D46174628E0E4
:100BF000B4F5004F03D247F69C70854202D900201D
:100C0000BDE8F08104F03F00C0F14000A84204D2EA
:100C100004F03F00C0F1400000E028460646F3B271
:100C2000A1B23A46A020FCF7CBF800B90BE034445F
:100C3000AD1B37446FF07041A020FCF77AF800B983
:100C400001E0002DD4D100BF0DB90120D8E700226A
:100C500011461046FDF7E4FF0020D1E72DE9F041F1
:100C600004460D46174627E0B4F5004F03D247F679
:100C70009C70854202D90020BDE8F08104F03F005D
:100C8000C0F14000A84204D204F03F00C0F140008F
:100C900000E028460646F3B2A1B23A46A020FCF78F
:100CA000BFF800B90AE03444AD1B6FF07041A020DA
:100CB000FCF73FF800B901E0002DD5D100BF0DB918
:100CC0000120D9E7002211461046FDF7A9FF0020B8
:100CD000D2E700001FB504467C4904F10902086808
:100CE000611DFFF751F900284DD0B4F803000090C2
:100CF0000D20005B0390206901907448001D00687E
:100D0000B0F1082F1FD15520714908707148008833
:100D1000402808D0802809D0B0F5807F09D0B0F5F0
:100D2000007F0CD108E06C4802900BE06B48029009
:100D300008E06B48029005E06A48029002E06648CD
:100D4000029000BF05E0AA20614908704FF008201A
:100D50000290E07B6946FFF722F998B1F1206249E1
:100D600008700720A0705948001F0088A4F80300ED
:100D700056480168C4F80510554801786172022090
:100D800004B010BD00BF0E20FAE710B50446FDF711
:100D900097F955480078F1280DD1E0784C49097849
:100DA000884206D1A278D21ED1B2A088A21DFFF738
:100DB0003DF9012010BD4C480078F22801D10120F6
:100DC000F8E70020484908700320F3E770B50646AD
:100DD0000C461546FDF774F943480078F1280BD10D
:100DE00029462046FFF75AF920B1F2203E49087003
:100DF000012070BD0020FCE73B480078F22801D1BB
:100E00000120F6E70020384908700320F1E710B50B
:100E1000044635480078F2281FD1E079217A48400D
:100E2000E071207AE17948402072E079217A4840E7
:100E3000E0710722115BD4F80300FFF755F9012890
:100E400011D12248001FFFF7A1F960B1F320264914
:100E50000870FDF753F9012010BD23480078F328EE
:100E600001D10120F8E700201F4908701220F3E7A4
:100E700010B50446A078012801D00F2010BDE078FD
:100E8000492802DBE0785D2801DD0E20F6E7FFF758
:100E900064F9E17888420CD0E078FFF734F908B9BA
:100EA0001220EBE7114B4FF4487200210846FEF781
:100EB00027FE0120E2E770B506460C461546FFF70F
:100EC0004CF928700120207070BD00000404000857
:100ED0008B000020E0F7FF1F0084000800C400081A
:100EE00000980108002803088A00002089D400081F
:100EF00010B5802221492248FDF7BAFE10BD1CB56D
:100F0000072269461E48FDF736FF58B1DDF8033069
:100F10009DF802209DF801109DF8000000F0C0F837
:100F200001201CBDFFF7E4FF0020FAE72DE9FC419A
:100F300005460C4616461F46124800EBC500807950
:100F400018B9C72C16DDDD2C14DA8DF800508DF899
:100F500001408DF80260CDF8037007226946084809
:100F6000FDF7D4FEAFF26903C82200210320FEF78B
:100F7000C7FD01E001F0A2F9BDE8FC815C0F002093
:100F80004C0F0020F800002010B501F0D8FA10BD79
:100F900010B501F0B5FA10BD10B50446092C3AD2CF
:100FA000DFE804F039050B11171D232931009942A0
:100FB00001DA012010BD0020FCE7994201DC01208C
:100FC000F8E70020F6E7994201DD0120F2E7002072
:100FD000F0E7994201DB0120ECE70020EAE79942C3
:100FE00001D10120E6E70020E4E7994201D0012089
:100FF000E0E70020DEE7994203DC9A4201DB0120B2
:10100000D8E70020D6E7994201DC9A4201DA0120B4
:10101000D0E70020CEE70020CCE70146092916D210
:10102000DFE801F015090F0D0B050711130006206D
:1010300070470520FCE70420FAE70120F8E70220CA
:10104000F6E70320F4E70820F2E70720F0E70020A6
:10105000EEE70346092B1ED2DFE803F01D05060A62
:101060000B1D1D0F160000BF0868401C086014E02F
:1010700000BF0868401E08600FE00868401C086058
:101080001068401E106008E00868401C0860106886
:10109000401E106001E00020704700BF0120FBE708
:1010A0002DE9FE4F05460E4617469846002484E07B
:1010B00004EB44104549085C01287CD1012F79D10B
:1010C0004FF0000904EB44100844007A010604EBD9
:1010D00044103E4A1044C07901EB004104EB441037
:1010E0001044807901EB002004EB4411114449794C
:1010F00000EB010904EB4410114608448078A84233
:1011000057D104EB44100844C078B04251D104EBED
:10111000441111440879434600224946FFF73CFF39
:10112000E8B304EB441029490844007B010604EBB2
:101130004410264A1044C07A01EB004104EB4410ED
:101140001044807A01EB002004EB44111144497AE9
:1011500000EB010904EB441011460844143004EB81
:1011600044111144C97C04EB4412184B1A44927C7C
:10117000CDE90021029004EB44119C46614491F8B2
:101180000EC004EB44119A465144C97B0CEB01217B
:101190008AB204EB44119C4661444B7C02E008E0B7
:1011A00009E007E004EB44116144487B494600F044
:1011B0006AFA00E000BF601CC4B2044890F87206EE
:1011C000A0423FF775AF0120BDE8FE8FB4110020AB
:1011D00010B50446012C02D101F034FA10BDFF20F5
:1011E000FCE770B504460D46012C03D1284601F0FA
:1011F00010FA70BDFF20FCE730B503460C46012B0A
:1012000018D100210BE001EB4110BE4D285C20B14C
:1012100001EB4110284440785054481CC1B2B948F1
:1012200090F872068842EEDCB64890F8720620709C
:10123000012030BDFF20FCE72DE9F04104460D46BA
:1012400016461F46012C06D13A463146284601F083
:1012500002FABDE8F081FF20FBE72DE9F0410446EA
:101260000D4616461F46DDF81880012C12D1FF2DC1
:1012700003D1A44991F8721600E029460846434676
:101280003A46314601F000FA10B10120BDE8F08184
:101290000020FBE7FF20F9E770B50446012C10D1D0
:1012A00040F2736200219748FDF7EEFA00BF42F268
:1012B00001000546934A40F27361FFF793FC012059
:1012C00070BDFF20FCE770B505460C46012D07D127
:1012D000322C03DA204601F021FA70BD0020FCE731
:1012E000FF20FAE770B504460D461646012C04D1DE
:1012F0003146284601F038F970BDFF20FCE770B593
:1013000004460D46012C03D1284601F05AF970BD60
:10131000FF20FCE72DE9FC4107460C46224601A9C7
:101320003846FFF7DFFFF0B93846FFF751FF0128D5
:1013300002D11320BDE8FC8101A93846FFF7DFFF89
:10134000012802D10126FF2501E01420F2E73346EF
:1013500000949DF8042029463846FFF77EFF0128B7
:1013600001D01020E6E7A41E9DF8040020700120A3
:10137000E0E72DE9F84307460D4616464FF0000911
:1013800029463846FFF72DFF8046FF2801D000246C
:1013900002E001244FF0FF0823462A464146384622
:1013A0000096FFF75AFF81464846BDE8F8832DE9CD
:1013B000F04104460D4616461F4629462046FFF7D3
:1013C00010FF8046FF2808D03B4632464146204663
:1013D000FFF732FF0120BDE8F0810020FBE72DE997
:1013E000F04107460E4614461D46FF2E07D12A46F9
:1013F00021463846FFF700FF0120BDE8F081314665
:101400003846FFF7EEFE2870FF2802D0012020703A
:10141000F3E70020F1E770B505460C46FF2C03D139
:101420002846FFF739FF70BD21462846FFF7D9FE51
:101430000646FF2804D031462846FFF744FFF2E76E
:101440000120F0E72DE9F0410546002400262D4853
:1014500090F8720610B90120BDE8F0811FE004EB9E
:101460004410284908448078A84216D101260A462B
:1014700092F87226521E02EB42120B46D11804EB70
:101480004412D0182122FDF7DDF91E4890F87206AB
:10149000401E1C4981F8720601E0601CC4B2194864
:1014A00090F87206A042DADC46B100BF42F20100B9
:1014B0000746144A40F27361FFF794FB0120CBE723
:1014C00070B505460E46002400BF14E004EB44103E
:1014D0000C490844C078A8420AD104EB44100844DF
:1014E000D0F80500B04203D1204601F017F902E020
:1014F000601CC4B200BF034890F87206A042E5DC4D
:10150000012070BDB411002010B570490120FEF714
:1015100071FF10BD70B50446012020706B4809387A
:101520000068C4F80100694809384168E160D4F8EE
:10153000060066490939496888420AD16348093872
:10154000407A401CC1B26148093841722174604D33
:101550001EE0607901281ADD267C5C480938407A53
:10156000401CC1B25948093841722174584D207D40
:1015700000F1150221462846FFF77EFA20B9002225
:1015800003210220FDF74CFB2674524D00E0514D23
:10159000207D00F1150221462846FFF76DFA80B93B
:1015A0004C48854205D1002202210846FDF738FB50
:1015B00007E04748854204D1002203210220FDF7BD
:1015C0002FFB70BDF0B5BFB005460E4617466C4602
:1015D00010222946601CFDF735F93C480938407A4D
:1015E000401CC1B239480938417221740422314685
:1015F00004F11100FDF726F9F27839460DF11500D6
:10160000FDF720F92046FFF785FF3FB0F0BDF0B5AC
:1016100085B004460D4616461F4601208DF8080089
:101620004FF08830CDF809000020ADF80D008DF89E
:1016300000008DF801408DF802508DF803603A46A5
:10164000694601A8FFF7BEFF05B0F0BDF0B591B047
:1016500005460E4614461F4601208DF804008DF8FD
:1016600005508DF806608DF807402246394602A8DD
:10167000FDF7E8F8201DC2B201AB00210846FFF7D4
:10168000C6FF11B0F0BD2DE9F04786B004460D4607
:1016900016461F46DDE90F9ADDF838808DF80C40BC
:1016A000CDF80D50ADF8116004208DF804008DF8D0
:1016B00006808DF805708DF80790524601A902A8A2
:1016C000FFF780FF06B0BDE8F0870000350F00206F
:1016D000A8020020B80200202DE9F04106460F467E
:1016E000042506E0681E305CFF2800D003E0681E79
:1016F000C5B2002DF6DC00BF0024601E38601CE07F
:10170000305DFF2817D0FCF72DFD804610E0A8F1D2
:101710000100C0B28046F84901EBC000005D315DB8
:10172000884205D0012101FA08F138688843386001
:10173000B8F1000FEBD1601CC4B2AC42E0DB28462C
:10174000BDE8F081024600210CE0EB480830405C27
:10175000535C984204D0505CFF2801D000207047B1
:10176000481CC1B20429F0DB0120F8E730B505467A
:10177000E248807F012808D12879022805DB681D0E
:10178000FFF7E0FF08B1012030BD002424E0DB4872
:101790000A3000EB8400006830B1D8480A3000EB12
:1017A00084000068401C00B914E0D5F80B10D34841
:1017B0000A3000EB84000068814208D0D5F805109B
:1017C000CE480A3000EB84000068814201D101203C
:1017D000DAE700BF601CC4B2052CD8DB0020D3E7D9
:1017E00030B50246002138E0C54800EB0110006822
:1017F000D2F80B40A0422ED100230BE0C04800EBF2
:1018000001100830C05CD47BA04201D1002030BD63
:10181000581CC3B2052BF1DBB94800EB0110407B2B
:10182000401CC0B2B64C04EB01146073052490FB5D
:10183000F4F504FB1500B24C04EB01146073D47B87
:10184000AF4800EB01100830AD4D05EB01156D7B85
:1018500044550120DBE7481CC1B21429C4DBA94868
:101860000078401CC0B2A74C2070142490FBF4F503
:1018700004FB1500A34C2070D07BA14CA14D2D780A
:1018800004EB05142072D2F80B409D489D4D2D7835
:1018900000EB051004600120B9E72DE9FC5F8246EA
:1018A0008B4616461C460C9F30689449096888424E
:1018B00008D030689449884204D090480068401CA1
:1018C000002871D13046FFF78BFF10B90820BDE822
:1018D000FC9F3046FFF74AFF20B15A4651468B48DD
:1018E000FDF714FA307901280BD1D6F805008349A9
:1018F0004968884201D00620E9E700208449086051
:1019000012E23079052807D1D6F8050020B9D6F8BB
:101910000B007F49086007E20020009000BF7D486F
:10192000806840F001007B4988607B48006808605F
:101930007948001D00680860774808300068086032
:1019400076480068086075480E30006808600846F0
:1019500000680090D6F80B006D49086001A9701D61
:10196000FFF7BAFE8146DDE900108840019000983B
:101970008144019808B90720A9E73079022832D1BB
:10198000E2783946F81CFCF788FF0322611C3846D0
:10199000FCF758FFE078C01C00F0FF0800206070E2
:1019A000A070E070012519E0C4E10120A840019970
:1019B000084088B1727A09F0FF012846FEF72AFE36
:1019C00050B1E178C81942463946FCF73BFFE07850
:1019D0003D54E0784044E070681CC5B2FCF7C2FB9F
:1019E000A842E2DC9FE1307903282AD10020607010
:1019F000A070E07001251FE00120A8400199084077
:101A0000C0B1E078C319727A09F0FF012846FEF7E9
:101A100068FFE078385C68B1E07817F80080E27819
:101A20003A44511CE278D0194246FCF736FFE07880
:101A30004044E070681CC5B2FCF794FBA842DBDCB4
:101A400071E1307904286CD1607890BBE278394636
:101A5000F81CFCF722FF0322611C3846FCF7F2FE5B
:101A6000E078C01C00F0FF0800206070A070E070FB
:101A7000012519E00120A8400199084090B1B6F86D
:101A8000090026497E31098889B288420AD1E17865
:101A9000C81942463946FCF7D5FEE0783D54E07857
:101AA0004044E070681CC5B2FCF75CFBA842E1DC76
:101AB00039E1FFE7FCF756FB401E6178884201DA06
:101AC0000E2004E76178012088400199084088B120
:101AD000B6F8090011497E31098889B28842AFD031
:101AE0000E487E30008880B21D2803D1B6F8090068
:101AF0001E28A5D00E20EAE6F80000202C0F0020BA
:101B0000DC0F00209000002042455354B802002012
:101B10008C00002000300240E8F7FF1F820300081D
:101B2000FFE73079062832D1E2783946F81CFCF715
:101B3000B4FE0322611C3846FCF784FEE078C01C2A
:101B400000F0FF0800206070A070E070012519E02F
:101B50000120A8400199084090B1B6F809007649E3
:101B600001EBC501898888420AD1E178C81942464B
:101B70003946FCF767FEE0783D54E0784044E07079
:101B8000681CC5B2FCF7EEFAA842E1DCCBE0307984
:101B9000072832D1E2783946F81CFCF77EFE032292
:101BA000611C3846FCF74EFEE078C01C00F0FF08D0
:101BB00000206070A070E070012519E00120A840AD
:101BC0000199084090B1B6F809005B4901EBC501E5
:101BD000C97988420AD1E178C81942463946FCF7EA
:101BE00031FEE0783D54E0784044E070681CC5B2B6
:101BF000FCF7B8FAA842E1DC95E03079142858D116
:101C0000607898BBE2783946F81CFCF746FE032260
:101C1000611C3846FCF716FEE078C01C00F0FF0897
:101C200000206070A070E07001251AE0424850F872
:101C30003500D6F80510884211D1B6F809003F49A1
:101C4000098889B288420AD1E178C81942463946E2
:101C5000FCF7F8FDE0783D54E0784044E070681C03
:101C6000C5B2FCF77FFAA842E0DC5CE0FFE7FCF7D6
:101C700079FA401E6178884201DA0E2027E6607802
:101C80002D4951F83000D6F8051088420FD1B6F82A
:101C900009002A49098889B2884244D02748008827
:101CA00080B21D2803D1B6F809001E283BD00E20B3
:101CB0000DE63079162834D1E2783946F81CFCF765
:101CC000ECFD0322611C3846FCF7BCFDE078C01C2B
:101CD00000F0FF0800206070A070E07001251BE09C
:101CE000154850F83500D6F80510884212D1B6F8DC
:101CF0000900114901EBC501898888420AD1E178C0
:101D0000C81942463946FCF79DFDE0783D54E0781D
:101D10004044E070681CC5B2FCF724FAA842DFDC3E
:101D200001E00520D3E500BFD6F80B00C6F805009A
:101D30000120CCE50420CAE5F800002000040008DA
:101D40002DE9F8430446002700F0C4FD0746A078BB
:101D50003841A0706946201DFFF7BEFC0646F01909
:101D6000C6B2A078032802DA0F20BDE8F883FCF79A
:101D7000F9F90146E078401C3844C0B2814205DBE5
:101D8000207A401C3844C0B2102801DD0E20ECE758
:101D9000A07A012828D1E07828B1E078FF2802D085
:101DA000207AFF2801D10E20DFE7E178012088406A
:101DB00000990840B0B1A0780938E072E07A202894
:101DC0000EDA207A012802D1A0780938E072227A4E
:101DD000E07804F10B033146FEF73BFDC0B2C4E7E7
:101DE0000F20C2E70720C0E7A07A00286DD1E07875
:101DF000FF283FD1C6B9207AFF2802D1FEF7EEF9BD
:101E000063E001250BE00120A8400099084020B1C3
:101E1000227A31462846FEF780FC681CC5B2FCF7E2
:101E2000A1F9A842EFDC50E001251EE00120A84006
:101E300000990840B8B1207AFF280FD14FF0000870
:101E400008E0E07842463146FEF767FC08F1010001
:101E500000F0FF08B8F1100FF3DB04E0227A3146FE
:101E60002846FEF75AFC681CC5B2FCF77BF9A8426D
:101E7000DCDC2AE0E178012088400099084010B3BA
:101E800066B9207AFF2803D1E078FEF722FC1CE037
:101E9000227AE0783146FEF740FC16E0207AFF28EF
:101EA0000BD1002506E0E0782A463146FEF735FCE6
:101EB000681CC5B2102DF6DB07E0227AE0783146C7
:101EC000FEF72BFC01E007204FE701204DE7F8B5B6
